{
  "_format": "hh3-artifact-1",
  "contractName": "BridgeHook",
  "sourceName": "contracts/BridgeHook.sol",
  "abi": [
    {
      "inputs": [],
      "stateMutability": "nonpayable",
      "type": "constructor"
    },
    {
      "inputs": [],
      "name": "AccessControlBadConfirmation",
      "type": "error"
    },
    {
      "inputs": [
        {
          "internalType": "address",
          "name": "account",
          "type": "address"
        },
        {
          "internalType": "bytes32",
          "name": "neededRole",
          "type": "bytes32"
        }
      ],
      "name": "AccessControlUnauthorizedAccount",
      "type": "error"
    },
    {
      "inputs": [],
      "name": "InsufficientBalance",
      "type": "error"
    },
    {
      "inputs": [],
      "name": "InvalidAmount",
      "type": "error"
    },
    {
      "inputs": [],
      "name": "OperationAlreadyExecuted",
      "type": "error"
    },
    {
      "inputs": [],
      "name": "OperationNotFound",
      "type": "error"
    },
    {
      "inputs": [],
      "name": "ReentrancyGuardReentrantCall",
      "type": "error"
    },
    {
      "inputs": [
        {
          "internalType": "address",
          "name": "token",
          "type": "address"
        }
      ],
      "name": "SafeERC20FailedOperation",
      "type": "error"
    },
    {
      "inputs": [],
      "name": "UnauthorizedAgent",
      "type": "error"
    },
    {
      "inputs": [],
      "name": "UnsupportedChain",
      "type": "error"
    },
    {
      "inputs": [],
      "name": "UnsupportedToken",
      "type": "error"
    },
    {
      "anonymous": false,
      "inputs": [
        {
          "indexed": true,
          "internalType": "address",
          "name": "user",
          "type": "address"
        },
        {
          "indexed": true,
          "internalType": "address",
          "name": "token",
          "type": "address"
        },
        {
          "indexed": false,
          "internalType": "uint256",
          "name": "amount",
          "type": "uint256"
        },
        {
          "indexed": false,
          "internalType": "uint256",
          "name": "toChainId",
          "type": "uint256"
        },
        {
          "indexed": false,
          "internalType": "bytes32",
          "name": "operationId",
          "type": "bytes32"
        },
        {
          "indexed": false,
          "internalType": "uint256",
          "name": "timestamp",
          "type": "uint256"
        }
      ],
      "name": "BridgeExecuted",
      "type": "event"
    },
    {
      "anonymous": false,
      "inputs": [
        {
          "indexed": false,
          "internalType": "uint256",
          "name": "newFeeBps",
          "type": "uint256"
        }
      ],
      "name": "BridgeFeeUpdated",
      "type": "event"
    },
    {
      "anonymous": false,
      "inputs": [
        {
          "indexed": true,
          "internalType": "address",
          "name": "user",
          "type": "address"
        },
        {
          "indexed": true,
          "internalType": "address",
          "name": "token",
          "type": "address"
        },
        {
          "indexed": false,
          "internalType": "uint256",
          "name": "amount",
          "type": "uint256"
        },
        {
          "indexed": false,
          "internalType": "uint256",
          "name": "toChainId",
          "type": "uint256"
        },
        {
          "indexed": false,
          "internalType": "bytes",
          "name": "executeData",
          "type": "bytes"
        },
        {
          "indexed": false,
          "internalType": "bytes32",
          "name": "operationId",
          "type": "bytes32"
        }
      ],
      "name": "BridgeInitiated",
      "type": "event"
    },
    {
      "anonymous": false,
      "inputs": [
        {
          "indexed": true,
          "internalType": "uint256",
          "name": "chainId",
          "type": "uint256"
        },
        {
          "indexed": false,
          "internalType": "bool",
          "name": "supported",
          "type": "bool"
        }
      ],
      "name": "ChainSupported",
      "type": "event"
    },
    {
      "anonymous": false,
      "inputs": [
        {
          "indexed": true,
          "internalType": "bytes32",
          "name": "role",
          "type": "bytes32"
        },
        {
          "indexed": true,
          "internalType": "bytes32",
          "name": "previousAdminRole",
          "type": "bytes32"
        },
        {
          "indexed": true,
          "internalType": "bytes32",
          "name": "newAdminRole",
          "type": "bytes32"
        }
      ],
      "name": "RoleAdminChanged",
      "type": "event"
    },
    {
      "anonymous": false,
      "inputs": [
        {
          "indexed": true,
          "internalType": "bytes32",
          "name": "role",
          "type": "bytes32"
        },
        {
          "indexed": true,
          "internalType": "address",
          "name": "account",
          "type": "address"
        },
        {
          "indexed": true,
          "internalType": "address",
          "name": "sender",
          "type": "address"
        }
      ],
      "name": "RoleGranted",
      "type": "event"
    },
    {
      "anonymous": false,
      "inputs": [
        {
          "indexed": true,
          "internalType": "bytes32",
          "name": "role",
          "type": "bytes32"
        },
        {
          "indexed": true,
          "internalType": "address",
          "name": "account",
          "type": "address"
        },
        {
          "indexed": true,
          "internalType": "address",
          "name": "sender",
          "type": "address"
        }
      ],
      "name": "RoleRevoked",
      "type": "event"
    },
    {
      "anonymous": false,
      "inputs": [
        {
          "indexed": true,
          "internalType": "address",
          "name": "token",
          "type": "address"
        },
        {
          "indexed": false,
          "internalType": "bool",
          "name": "supported",
          "type": "bool"
        }
      ],
      "name": "TokenSupported",
      "type": "event"
    },
    {
      "inputs": [],
      "name": "AGENT_ROLE",
      "outputs": [
        {
          "internalType": "bytes32",
          "name": "",
          "type": "bytes32"
        }
      ],
      "stateMutability": "view",
      "type": "function"
    },
    {
      "inputs": [],
      "name": "BRIDGE_ROLE",
      "outputs": [
        {
          "internalType": "bytes32",
          "name": "",
          "type": "bytes32"
        }
      ],
      "stateMutability": "view",
      "type": "function"
    },
    {
      "inputs": [],
      "name": "DEFAULT_ADMIN_ROLE",
      "outputs": [
        {
          "internalType": "bytes32",
          "name": "",
          "type": "bytes32"
        }
      ],
      "stateMutability": "view",
      "type": "function"
    },
    {
      "inputs": [],
      "name": "bridgeFeeBps",
      "outputs": [
        {
          "internalType": "uint256",
          "name": "",
          "type": "uint256"
        }
      ],
      "stateMutability": "view",
      "type": "function"
    },
    {
      "inputs": [
        {
          "internalType": "bytes32",
          "name": "",
          "type": "bytes32"
        }
      ],
      "name": "bridgeOperations",
      "outputs": [
        {
          "internalType": "address",
          "name": "user",
          "type": "address"
        },
        {
          "internalType": "address",
          "name": "token",
          "type": "address"
        },
        {
          "internalType": "uint256",
          "name": "amount",
          "type": "uint256"
        },
        {
          "internalType": "uint256",
          "name": "toChainId",
          "type": "uint256"
        },
        {
          "internalType": "bytes",
          "name": "executeData",
          "type": "bytes"
        },
        {
          "internalType": "bool",
          "name": "executed",
          "type": "bool"
        },
        {
          "internalType": "uint256",
          "name": "timestamp",
          "type": "uint256"
        },
        {
          "internalType": "uint256",
          "name": "executionTimestamp",
          "type": "uint256"
        }
      ],
      "stateMutability": "view",
      "type": "function"
    },
    {
      "inputs": [
        {
          "internalType": "address",
          "name": "user",
          "type": "address"
        },
        {
          "internalType": "address",
          "name": "token",
          "type": "address"
        },
        {
          "internalType": "uint256",
          "name": "amount",
          "type": "uint256"
        },
        {
          "internalType": "uint256",
          "name": "toChainId",
          "type": "uint256"
        }
      ],
      "name": "executeBridge",
      "outputs": [],
      "stateMutability": "nonpayable",
      "type": "function"
    },
    {
      "inputs": [
        {
          "internalType": "bytes32",
          "name": "operationId",
          "type": "bytes32"
        }
      ],
      "name": "getBridgeOperation",
      "outputs": [
        {
          "components": [
            {
              "internalType": "address",
              "name": "user",
              "type": "address"
            },
            {
              "internalType": "address",
              "name": "token",
              "type": "address"
            },
            {
              "internalType": "uint256",
              "name": "amount",
              "type": "uint256"
            },
            {
              "internalType": "uint256",
              "name": "toChainId",
              "type": "uint256"
            },
            {
              "internalType": "bytes",
              "name": "executeData",
              "type": "bytes"
            },
            {
              "internalType": "bool",
              "name": "executed",
              "type": "bool"
            },
            {
              "internalType": "uint256",
              "name": "timestamp",
              "type": "uint256"
            },
            {
              "internalType": "uint256",
              "name": "executionTimestamp",
              "type": "uint256"
            }
          ],
          "internalType": "struct BridgeHook.BridgeOperation",
          "name": "operation",
          "type": "tuple"
        }
      ],
      "stateMutability": "view",
      "type": "function"
    },
    {
      "inputs": [
        {
          "internalType": "bytes32",
          "name": "role",
          "type": "bytes32"
        }
      ],
      "name": "getRoleAdmin",
      "outputs": [
        {
          "internalType": "bytes32",
          "name": "",
          "type": "bytes32"
        }
      ],
      "stateMutability": "view",
      "type": "function"
    },
    {
      "inputs": [
        {
          "internalType": "address",
          "name": "user",
          "type": "address"
        }
      ],
      "name": "getUserBridgeHistory",
      "outputs": [
        {
          "internalType": "bytes32[]",
          "name": "operations",
          "type": "bytes32[]"
        }
      ],
      "stateMutability": "view",
      "type": "function"
    },
    {
      "inputs": [
        {
          "internalType": "bytes32",
          "name": "role",
          "type": "bytes32"
        },
        {
          "internalType": "address",
          "name": "account",
          "type": "address"
        }
      ],
      "name": "grantRole",
      "outputs": [],
      "stateMutability": "nonpayable",
      "type": "function"
    },
    {
      "inputs": [
        {
          "internalType": "bytes32",
          "name": "role",
          "type": "bytes32"
        },
        {
          "internalType": "address",
          "name": "account",
          "type": "address"
        }
      ],
      "name": "hasRole",
      "outputs": [
        {
          "internalType": "bool",
          "name": "",
          "type": "bool"
        }
      ],
      "stateMutability": "view",
      "type": "function"
    },
    {
      "inputs": [
        {
          "internalType": "address",
          "name": "token",
          "type": "address"
        },
        {
          "internalType": "uint256",
          "name": "amount",
          "type": "uint256"
        },
        {
          "internalType": "uint256",
          "name": "toChainId",
          "type": "uint256"
        },
        {
          "internalType": "bytes",
          "name": "executeData",
          "type": "bytes"
        }
      ],
      "name": "initiateBridge",
      "outputs": [],
      "stateMutability": "nonpayable",
      "type": "function"
    },
    {
      "inputs": [],
      "name": "maxBridgeAmount",
      "outputs": [
        {
          "internalType": "uint256",
          "name": "",
          "type": "uint256"
        }
      ],
      "stateMutability": "view",
      "type": "function"
    },
    {
      "inputs": [
        {
          "internalType": "bytes32",
          "name": "role",
          "type": "bytes32"
        },
        {
          "internalType": "address",
          "name": "callerConfirmation",
          "type": "address"
        }
      ],
      "name": "renounceRole",
      "outputs": [],
      "stateMutability": "nonpayable",
      "type": "function"
    },
    {
      "inputs": [
        {
          "internalType": "bytes32",
          "name": "role",
          "type": "bytes32"
        },
        {
          "internalType": "address",
          "name": "account",
          "type": "address"
        }
      ],
      "name": "revokeRole",
      "outputs": [],
      "stateMutability": "nonpayable",
      "type": "function"
    },
    {
      "inputs": [
        {
          "internalType": "uint256",
          "name": "newFeeBps",
          "type": "uint256"
        }
      ],
      "name": "setBridgeFee",
      "outputs": [],
      "stateMutability": "nonpayable",
      "type": "function"
    },
    {
      "inputs": [
        {
          "internalType": "uint256",
          "name": "chainId",
          "type": "uint256"
        },
        {
          "internalType": "bool",
          "name": "supported",
          "type": "bool"
        }
      ],
      "name": "setSupportedChain",
      "outputs": [],
      "stateMutability": "nonpayable",
      "type": "function"
    },
    {
      "inputs": [
        {
          "internalType": "address",
          "name": "token",
          "type": "address"
        },
        {
          "internalType": "bool",
          "name": "supported",
          "type": "bool"
        }
      ],
      "name": "setSupportedToken",
      "outputs": [],
      "stateMutability": "nonpayable",
      "type": "function"
    },
    {
      "inputs": [
        {
          "internalType": "uint256",
          "name": "",
          "type": "uint256"
        }
      ],
      "name": "supportedChains",
      "outputs": [
        {
          "internalType": "bool",
          "name": "",
          "type": "bool"
        }
      ],
      "stateMutability": "view",
      "type": "function"
    },
    {
      "inputs": [
        {
          "internalType": "address",
          "name": "",
          "type": "address"
        }
      ],
      "name": "supportedTokens",
      "outputs": [
        {
          "internalType": "bool",
          "name": "",
          "type": "bool"
        }
      ],
      "stateMutability": "view",
      "type": "function"
    },
    {
      "inputs": [
        {
          "internalType": "bytes4",
          "name": "interfaceId",
          "type": "bytes4"
        }
      ],
      "name": "supportsInterface",
      "outputs": [
        {
          "internalType": "bool",
          "name": "",
          "type": "bool"
        }
      ],
      "stateMutability": "view",
      "type": "function"
    },
    {
      "inputs": [
        {
          "internalType": "address",
          "name": "",
          "type": "address"
        },
        {
          "internalType": "uint256",
          "name": "",
          "type": "uint256"
        }
      ],
      "name": "userBridgeHistory",
      "outputs": [
        {
          "internalType": "bytes32",
          "name": "",
          "type": "bytes32"
        }
      ],
      "stateMutability": "view",
      "type": "function"
    }
  ],
  "bytecode": "0x6080604052600a60065564e8d4a5100060075534801561001d575f5ffd5b506001805561002c5f336101bb565b506100577f52ba824bfabc2bcfcdf7f0edbb486ebb05e1836c90e78047efeb949990f72e5f336101bb565b506100827fcab5a0bfe0b79d2c4b1c2e02599fa044d115b7511f9659307cb4276950967709336101bb565b506100d073cac524bca292aaade2df8a05cc58f0a65b1b3bb95f5260026020527fe80b589fbdd63ea8dc35c9f2c75a06d91a7122f91648e2fa47778cb5d1fbc4c1805460ff19166001179055565b6101b660036020527fa15bc60c955c405d20d9149c709e2460f1c2d9a497496a7f46004d1772c3054c8054600160ff1991821681179092557f6ae340ffc0ca34b7018bb71046e01f0458aba60527fcbfc3c36b28e87d7d8eec80548216831790557f9dcb9783ba5cd0b54745f65f4f918525e461e91888c334e5342cb380ac558d5380548216831790557f6da21496ee3c71e35693bb2fb88efaa21b54d17c105fc747d0ca398ed7bab9d4805482168317905562aa36a75f527f2b74969026b51da63916d305b53f8b6fe255c38667d340559e51ada80fbdc03680549091169091179055565b610264565b5f828152602081815260408083206001600160a01b038516845290915281205460ff1661025b575f838152602081815260408083206001600160a01b03861684529091529020805460ff191660011790556102133390565b6001600160a01b0316826001600160a01b0316847f2f8788117e7eff1d82e926ec794901d17c78024a50270940304540a733656f0d60405160405180910390a450600161025e565b505f5b92915050565b611600806102715f395ff3fe608060405234801561000f575f5ffd5b506004361061013d575f3560e01c806360132c9c116100b4578063a217fddf11610079578063a217fddf146102e4578063b5bfddea146102eb578063c6ed5c2b14610312578063d547741f14610332578063e798646614610345578063f25bda1014610358575f5ffd5b806360132c9c1461027357806368c4ac261461027c57806391d148541461029e578063998cdf83146102b15780639aa6188f146102c4575f5ffd5b80632f2ff15d116101055780632f2ff15d146101fa57806336568abe1461020f57806346c6f5f41461022257806349e5faae146102355780634f6aa42b14610248578063548d496f14610251575f5ffd5b806301ffc9a7146101415780630ed61188146101695780631387380f1461018a57806322459e18146101b1578063248a9ca3146101d8575b5f5ffd5b61015461014f36600461101a565b61036b565b60405190151581526020015b60405180910390f35b61017c610177366004611063565b6103a1565b604051908152602001610160565b61019d61019836600461108b565b6103cc565b6040516101609897969594939291906110d0565b61017c7fcab5a0bfe0b79d2c4b1c2e02599fa044d115b7511f9659307cb427695096770981565b61017c6101e636600461108b565b5f9081526020819052604090206001015490565b61020d61020836600461112a565b6104a7565b005b61020d61021d36600461112a565b6104d1565b61020d610230366004611163565b610509565b61020d610243366004611184565b61056b565b61017c60065481565b61015461025f36600461108b565b60036020525f908152604090205460ff1681565b61017c60075481565b61015461028a366004611212565b60026020525f908152604090205460ff1681565b6101546102ac36600461112a565b61085b565b61020d6102bf36600461108b565b610883565b6102d76102d2366004611212565b6108c9565b604051610160919061122b565b61017c5f81565b61017c7f52ba824bfabc2bcfcdf7f0edbb486ebb05e1836c90e78047efeb949990f72e5f81565b61032561032036600461108b565b610932565b604051610160919061126d565b61020d61034036600461112a565b610a94565b61020d6103533660046112f7565b610ab8565b61020d61036636600461131f565b610b19565b5f6001600160e01b03198216637965db0b60e01b148061039b57506301ffc9a760e01b6001600160e01b03198316145b92915050565b6005602052815f5260405f2081815481106103ba575f80fd5b905f5260205f20015f91509150505481565b600460208190525f9182526040909120805460018201546002830154600384015494840180546001600160a01b03948516969390941694919361040e9061135e565b80601f016020809104026020016040519081016040528092919081815260200182805461043a9061135e565b80156104855780601f1061045c57610100808354040283529160200191610485565b820191905f5260205f20905b81548152906001019060200180831161046857829003601f168201915b5050505060058301546006840154600790940154929360ff9091169290915088565b5f828152602081905260409020600101546104c181610d91565b6104cb8383610d9e565b50505050565b6001600160a01b03811633146104fa5760405163334bd91960e11b815260040160405180910390fd5b6105048282610e2d565b505050565b5f61051381610d91565b5f83815260036020908152604091829020805460ff1916851515908117909155915191825284917fe78910fc1a08062969a9edf6b274d453a04a1734507fabbd5bb445d5cb8eaeae91015b60405180910390a2505050565b610573610e96565b6001600160a01b0385165f9081526002602052604090205460ff166105ab5760405163350b944160e11b815260040160405180910390fd5b5f8381526003602052604090205460ff166105d95760405163d21eab3760e01b815260040160405180910390fd5b8315806105e7575060075484115b156106055760405163162908e360e11b815260040160405180910390fd5b6040516370a0823160e01b815233600482015284906001600160a01b038716906370a0823190602401602060405180830381865afa158015610649573d5f5f3e3d5ffd5b505050506040513d601f19601f8201168201806040525081019061066d9190611396565b101561068c57604051631e9acf1760e31b815260040160405180910390fd5b5f338686868686426040516020016106aa97969594939291906113ad565b604051602081830303815290604052805190602001209050604051806101000160405280336001600160a01b03168152602001876001600160a01b0316815260200186815260200185815260200184848080601f0160208091040260200160405190810160405280939291908181526020018383808284375f9201829052509385525050506020808301829052426040808501919091526060938401839052858352600480835292819020855181546001600160a01b03199081166001600160a01b039283161783559387015160018301805490951691161790925584015160028201559183015160038301556080830151908201906107aa9082611459565b5060a08201516005828101805460ff19169215159290921790915560c0830151600683015560e090920151600790910155335f8181526020928352604080822080546001810182559083529390912090920183905590516001600160a01b03881691907f2379ea701ab96f6c5e1f8b444876baa5c852e11c55d1257d9ea812d9a2a72e26906108429089908990899089908990611514565b60405180910390a35061085460018055565b5050505050565b5f918252602082815260408084206001600160a01b0393909316845291905290205460ff1690565b5f61088d81610d91565b60068290556040518281527f42dfb00d085d601e55327921154ae76c1b24270b026c5a0c51caee18eb4c401f9060200160405180910390a15050565b6001600160a01b0381165f9081526005602090815260409182902080548351818402810184019094528084526060939283018282801561092657602002820191905f5260205f20905b815481526020019060010190808311610912575b50505050509050919050565b6109876040518061010001604052805f6001600160a01b031681526020015f6001600160a01b031681526020015f81526020015f8152602001606081526020015f151581526020015f81526020015f81525090565b5f8281526004602081815260409283902083516101008101855281546001600160a01b039081168252600183015416928101929092526002810154938201939093526003830154606082015290820180549192916080840191906109ea9061135e565b80601f0160208091040260200160405190810160405280929190818152602001828054610a169061135e565b8015610a615780601f10610a3857610100808354040283529160200191610a61565b820191905f5260205f20905b815481529060010190602001808311610a4457829003601f168201915b5050509183525050600582015460ff16151560208201526006820154604082015260079091015460609091015292915050565b5f82815260208190526040902060010154610aae81610d91565b6104cb8383610e2d565b5f610ac281610d91565b6001600160a01b0383165f81815260026020908152604091829020805460ff191686151590811790915591519182527fd86c88b4a367d9b81a6e00c9d3f7d01657bffef358fa8968c91c045ae99f0d52910161055e565b7fcab5a0bfe0b79d2c4b1c2e02599fa044d115b7511f9659307cb4276950967709610b4381610d91565b610b4b610e96565b6001600160a01b0385165f90815260056020908152604080832080548251818502810185019093528083529192909190830182828015610ba857602002820191905f5260205f20905b815481526020019060010190808311610b94575b509394505f935083925050505b8251811015610c75575f60045f858481518110610bd457610bd4611559565b602002602001015181526020019081526020015f209050876001600160a01b0316816001015f9054906101000a90046001600160a01b03166001600160a01b0316148015610c255750868160020154145b8015610c345750858160030154145b8015610c455750600581015460ff16155b15610c6c57838281518110610c5c57610c5c611559565b6020026020010151925050610c75565b50600101610bb5565b5080610c9457604051630f046c7760e41b815260040160405180910390fd5b5f818152600460205260409020600581015460ff1615610cc757604051632e108c6960e21b815260040160405180910390fd5b5f61271060065488610cd99190611581565b610ce39190611598565b90505f610cf082896115b7565b9050610d076001600160a01b038a168b308b610ec0565b610d138a8a838a610f27565b60058301805460ff191660011790554260078401819055604080518a8152602081018a905290810186905260608101919091526001600160a01b038a811691908c16907f6816470fa7240e7d1dde03618a32bd3c5cf2b675075b70eb29ecc4efd70eb8ab9060800160405180910390a3505050505061085460018055565b610d9b8133610f3b565b50565b5f610da9838361085b565b610e26575f838152602081815260408083206001600160a01b03861684529091529020805460ff19166001179055610dde3390565b6001600160a01b0316826001600160a01b0316847f2f8788117e7eff1d82e926ec794901d17c78024a50270940304540a733656f0d60405160405180910390a450600161039b565b505f61039b565b5f610e38838361085b565b15610e26575f838152602081815260408083206001600160a01b0386168085529252808320805460ff1916905551339286917ff6391f5c32d9c69d2a47ea670b442974b53935d1edc7fd64eb21e047a839171b9190a450600161039b565b600260015403610eb957604051633ee5aeb560e01b815260040160405180910390fd5b6002600155565b6040516001600160a01b0384811660248301528381166044830152606482018390526104cb9186918216906323b872dd906084015b604051602081830303815290604052915060e01b6020820180516001600160e01b038381831617835250505050610f7d565b6104cb6001600160a01b0384168584610fe9565b610f45828261085b565b610f795760405163e2517d3f60e01b81526001600160a01b0382166004820152602481018390526044015b60405180910390fd5b5050565b5f5f60205f8451602086015f885af180610f9c576040513d5f823e3d81fd5b50505f513d91508115610fb3578060011415610fc0565b6001600160a01b0384163b155b156104cb57604051635274afe760e01b81526001600160a01b0385166004820152602401610f70565b6040516001600160a01b0383811660248301526044820183905261050491859182169063a9059cbb90606401610ef5565b5f6020828403121561102a575f5ffd5b81356001600160e01b031981168114611041575f5ffd5b9392505050565b80356001600160a01b038116811461105e575f5ffd5b919050565b5f5f60408385031215611074575f5ffd5b61107d83611048565b946020939093013593505050565b5f6020828403121561109b575f5ffd5b5035919050565b5f81518084528060208401602086015e5f602082860101526020601f19601f83011685010191505092915050565b6001600160a01b038981168252881660208201526040810187905260608101869052610100608082018190525f9061110a908301876110a2565b94151560a08301525060c081019290925260e09091015295945050505050565b5f5f6040838503121561113b575f5ffd5b8235915061114b60208401611048565b90509250929050565b8035801515811461105e575f5ffd5b5f5f60408385031215611174575f5ffd5b8235915061114b60208401611154565b5f5f5f5f5f60808688031215611198575f5ffd5b6111a186611048565b94506020860135935060408601359250606086013567ffffffffffffffff8111156111ca575f5ffd5b8601601f810188136111da575f5ffd5b803567ffffffffffffffff8111156111f0575f5ffd5b886020828401011115611201575f5ffd5b959894975092955050506020019190565b5f60208284031215611222575f5ffd5b61104182611048565b602080825282518282018190525f918401906040840190835b81811015611262578351835260209384019390920191600101611244565b509095945050505050565b6020815260018060a01b03825116602082015260018060a01b03602083015116604082015260408201516060820152606082015160808201525f608083015161010060a08401526112c26101208401826110a2565b905060a08401516112d760c085018215159052565b5060c084015160e084015260e08401516101008401528091505092915050565b5f5f60408385031215611308575f5ffd5b61131183611048565b915061114b60208401611154565b5f5f5f5f60808587031215611332575f5ffd5b61133b85611048565b935061134960208601611048565b93969395505050506040820135916060013590565b600181811c9082168061137257607f821691505b60208210810361139057634e487b7160e01b5f52602260045260245ffd5b50919050565b5f602082840312156113a6575f5ffd5b5051919050565b6bffffffffffffffffffffffff198860601b1681526bffffffffffffffffffffffff198760601b16601482015285602882015284604882015282846068830137606892019182015260880195945050505050565b634e487b7160e01b5f52604160045260245ffd5b601f82111561050457805f5260205f20601f840160051c8101602085101561143a5750805b601f840160051c820191505b81811015610854575f8155600101611446565b815167ffffffffffffffff81111561147357611473611401565b61148781611481845461135e565b84611415565b6020601f8211600181146114b9575f83156114a25750848201515b5f19600385901b1c1916600184901b178455610854565b5f84815260208120601f198516915b828110156114e857878501518255602094850194600190920191016114c8565b508482101561150557868401515f19600387901b60f8161c191681555b50505050600190811b01905550565b85815284602082015260806040820152826080820152828460a08301375f60a084830101525f60a0601f19601f86011683010190508260608301529695505050505050565b634e487b7160e01b5f52603260045260245ffd5b634e487b7160e01b5f52601160045260245ffd5b808202811582820484141761039b5761039b61156d565b5f826115b257634e487b7160e01b5f52601260045260245ffd5b500490565b8181038181111561039b5761039b61156d56fea26469706673582212202a993d432f4b7a3a30e93331bef919b74eb6f160912d355f82af2611d4a4423c64736f6c634300081c0033",
  "linkReferences": {},
  "deployedLinkReferences": {},
  "immutableReferences": {},
  "inputSourceName": "project/contracts/BridgeHook.sol",
  "buildInfoId": "solc-0_8_28-6bb7ab62bc41cba2a75eca1571a21fbf09db6d0b"
}