{
  "_format": "hh3-artifact-1",
  "contractName": "IntentManager",
  "sourceName": "contracts/IntentManager.sol",
  "abi": [
    {
      "inputs": [
        {
          "internalType": "address",
          "name": "vault_",
          "type": "address"
        }
      ],
      "stateMutability": "nonpayable",
      "type": "constructor"
    },
    {
      "inputs": [],
      "name": "AccessControlBadConfirmation",
      "type": "error"
    },
    {
      "inputs": [
        {
          "internalType": "address",
          "name": "account",
          "type": "address"
        },
        {
          "internalType": "bytes32",
          "name": "neededRole",
          "type": "bytes32"
        }
      ],
      "name": "AccessControlUnauthorizedAccount",
      "type": "error"
    },
    {
      "inputs": [],
      "name": "EnforcedPause",
      "type": "error"
    },
    {
      "inputs": [],
      "name": "ExpectedPause",
      "type": "error"
    },
    {
      "inputs": [],
      "name": "InsufficientAPY",
      "type": "error"
    },
    {
      "inputs": [],
      "name": "IntentNotActive",
      "type": "error"
    },
    {
      "inputs": [],
      "name": "IntentNotFound",
      "type": "error"
    },
    {
      "inputs": [],
      "name": "InvalidIntent",
      "type": "error"
    },
    {
      "inputs": [],
      "name": "InvalidSlippage",
      "type": "error"
    },
    {
      "inputs": [],
      "name": "PythPriceStale",
      "type": "error"
    },
    {
      "inputs": [],
      "name": "ReentrancyGuardReentrantCall",
      "type": "error"
    },
    {
      "inputs": [],
      "name": "UnauthorizedAgent",
      "type": "error"
    },
    {
      "inputs": [],
      "name": "UnsupportedChain",
      "type": "error"
    },
    {
      "inputs": [],
      "name": "UnsupportedProtocol",
      "type": "error"
    },
    {
      "anonymous": false,
      "inputs": [
        {
          "indexed": true,
          "internalType": "uint256",
          "name": "chainId",
          "type": "uint256"
        },
        {
          "indexed": false,
          "internalType": "bool",
          "name": "supported",
          "type": "bool"
        }
      ],
      "name": "ChainSupported",
      "type": "event"
    },
    {
      "anonymous": false,
      "inputs": [
        {
          "indexed": true,
          "internalType": "address",
          "name": "user",
          "type": "address"
        },
        {
          "indexed": true,
          "internalType": "uint256",
          "name": "intentId",
          "type": "uint256"
        },
        {
          "indexed": false,
          "internalType": "uint256",
          "name": "timestamp",
          "type": "uint256"
        }
      ],
      "name": "IntentDeactivated",
      "type": "event"
    },
    {
      "anonymous": false,
      "inputs": [
        {
          "indexed": true,
          "internalType": "address",
          "name": "user",
          "type": "address"
        },
        {
          "indexed": true,
          "internalType": "uint256",
          "name": "intentId",
          "type": "uint256"
        },
        {
          "components": [
            {
              "internalType": "uint256",
              "name": "minApy",
              "type": "uint256"
            },
            {
              "internalType": "uint16",
              "name": "slippageBps",
              "type": "uint16"
            },
            {
              "internalType": "address",
              "name": "targetProtocol",
              "type": "address"
            },
            {
              "internalType": "uint256",
              "name": "targetChainId",
              "type": "uint256"
            },
            {
              "internalType": "uint256",
              "name": "maxGasPrice",
              "type": "uint256"
            },
            {
              "internalType": "bool",
              "name": "isActive",
              "type": "bool"
            },
            {
              "internalType": "uint256",
              "name": "createdAt",
              "type": "uint256"
            },
            {
              "internalType": "uint256",
              "name": "lastExecuted",
              "type": "uint256"
            }
          ],
          "indexed": false,
          "internalType": "struct IntentManager.Intent",
          "name": "intent",
          "type": "tuple"
        },
        {
          "indexed": false,
          "internalType": "uint256",
          "name": "timestamp",
          "type": "uint256"
        }
      ],
      "name": "IntentSubmitted",
      "type": "event"
    },
    {
      "anonymous": false,
      "inputs": [
        {
          "indexed": false,
          "internalType": "address",
          "name": "account",
          "type": "address"
        }
      ],
      "name": "Paused",
      "type": "event"
    },
    {
      "anonymous": false,
      "inputs": [
        {
          "indexed": true,
          "internalType": "address",
          "name": "protocol",
          "type": "address"
        },
        {
          "indexed": false,
          "internalType": "bool",
          "name": "supported",
          "type": "bool"
        }
      ],
      "name": "ProtocolSupported",
      "type": "event"
    },
    {
      "anonymous": false,
      "inputs": [
        {
          "indexed": true,
          "internalType": "address",
          "name": "user",
          "type": "address"
        },
        {
          "indexed": true,
          "internalType": "uint256",
          "name": "intentId",
          "type": "uint256"
        },
        {
          "indexed": false,
          "internalType": "uint256",
          "name": "yieldGained",
          "type": "uint256"
        },
        {
          "indexed": false,
          "internalType": "uint256",
          "name": "newApy",
          "type": "uint256"
        },
        {
          "indexed": false,
          "internalType": "uint256",
          "name": "timestamp",
          "type": "uint256"
        }
      ],
      "name": "RebalanceExecuted",
      "type": "event"
    },
    {
      "anonymous": false,
      "inputs": [
        {
          "indexed": true,
          "internalType": "address",
          "name": "user",
          "type": "address"
        },
        {
          "indexed": true,
          "internalType": "uint256",
          "name": "intentId",
          "type": "uint256"
        },
        {
          "indexed": false,
          "internalType": "uint256",
          "name": "currentApy",
          "type": "uint256"
        },
        {
          "indexed": false,
          "internalType": "uint256",
          "name": "targetApy",
          "type": "uint256"
        },
        {
          "indexed": false,
          "internalType": "uint256",
          "name": "timestamp",
          "type": "uint256"
        }
      ],
      "name": "RebalanceRequested",
      "type": "event"
    },
    {
      "anonymous": false,
      "inputs": [
        {
          "indexed": true,
          "internalType": "bytes32",
          "name": "role",
          "type": "bytes32"
        },
        {
          "indexed": true,
          "internalType": "bytes32",
          "name": "previousAdminRole",
          "type": "bytes32"
        },
        {
          "indexed": true,
          "internalType": "bytes32",
          "name": "newAdminRole",
          "type": "bytes32"
        }
      ],
      "name": "RoleAdminChanged",
      "type": "event"
    },
    {
      "anonymous": false,
      "inputs": [
        {
          "indexed": true,
          "internalType": "bytes32",
          "name": "role",
          "type": "bytes32"
        },
        {
          "indexed": true,
          "internalType": "address",
          "name": "account",
          "type": "address"
        },
        {
          "indexed": true,
          "internalType": "address",
          "name": "sender",
          "type": "address"
        }
      ],
      "name": "RoleGranted",
      "type": "event"
    },
    {
      "anonymous": false,
      "inputs": [
        {
          "indexed": true,
          "internalType": "bytes32",
          "name": "role",
          "type": "bytes32"
        },
        {
          "indexed": true,
          "internalType": "address",
          "name": "account",
          "type": "address"
        },
        {
          "indexed": true,
          "internalType": "address",
          "name": "sender",
          "type": "address"
        }
      ],
      "name": "RoleRevoked",
      "type": "event"
    },
    {
      "anonymous": false,
      "inputs": [
        {
          "indexed": false,
          "internalType": "address",
          "name": "account",
          "type": "address"
        }
      ],
      "name": "Unpaused",
      "type": "event"
    },
    {
      "inputs": [],
      "name": "AGENT_ROLE",
      "outputs": [
        {
          "internalType": "bytes32",
          "name": "",
          "type": "bytes32"
        }
      ],
      "stateMutability": "view",
      "type": "function"
    },
    {
      "inputs": [],
      "name": "BRIDGE_ROLE",
      "outputs": [
        {
          "internalType": "bytes32",
          "name": "",
          "type": "bytes32"
        }
      ],
      "stateMutability": "view",
      "type": "function"
    },
    {
      "inputs": [],
      "name": "DEFAULT_ADMIN_ROLE",
      "outputs": [
        {
          "internalType": "bytes32",
          "name": "",
          "type": "bytes32"
        }
      ],
      "stateMutability": "view",
      "type": "function"
    },
    {
      "inputs": [],
      "name": "bridgeHook",
      "outputs": [
        {
          "internalType": "contract IBridgeHook",
          "name": "",
          "type": "address"
        }
      ],
      "stateMutability": "view",
      "type": "function"
    },
    {
      "inputs": [
        {
          "internalType": "uint256",
          "name": "intentId",
          "type": "uint256"
        }
      ],
      "name": "deactivateIntent",
      "outputs": [],
      "stateMutability": "nonpayable",
      "type": "function"
    },
    {
      "inputs": [
        {
          "internalType": "address",
          "name": "user",
          "type": "address"
        },
        {
          "internalType": "uint256",
          "name": "intentId",
          "type": "uint256"
        },
        {
          "internalType": "bytes",
          "name": "executionData",
          "type": "bytes"
        }
      ],
      "name": "executeRebalance",
      "outputs": [],
      "stateMutability": "nonpayable",
      "type": "function"
    },
    {
      "inputs": [
        {
          "internalType": "address",
          "name": "user",
          "type": "address"
        }
      ],
      "name": "getActiveIntents",
      "outputs": [
        {
          "components": [
            {
              "internalType": "uint256",
              "name": "minApy",
              "type": "uint256"
            },
            {
              "internalType": "uint16",
              "name": "slippageBps",
              "type": "uint16"
            },
            {
              "internalType": "address",
              "name": "targetProtocol",
              "type": "address"
            },
            {
              "internalType": "uint256",
              "name": "targetChainId",
              "type": "uint256"
            },
            {
              "internalType": "uint256",
              "name": "maxGasPrice",
              "type": "uint256"
            },
            {
              "internalType": "bool",
              "name": "isActive",
              "type": "bool"
            },
            {
              "internalType": "uint256",
              "name": "createdAt",
              "type": "uint256"
            },
            {
              "internalType": "uint256",
              "name": "lastExecuted",
              "type": "uint256"
            }
          ],
          "internalType": "struct IntentManager.Intent[]",
          "name": "activeIntents",
          "type": "tuple[]"
        }
      ],
      "stateMutability": "view",
      "type": "function"
    },
    {
      "inputs": [
        {
          "internalType": "bytes32",
          "name": "role",
          "type": "bytes32"
        }
      ],
      "name": "getRoleAdmin",
      "outputs": [
        {
          "internalType": "bytes32",
          "name": "",
          "type": "bytes32"
        }
      ],
      "stateMutability": "view",
      "type": "function"
    },
    {
      "inputs": [
        {
          "internalType": "address",
          "name": "user",
          "type": "address"
        }
      ],
      "name": "getUserIntents",
      "outputs": [
        {
          "components": [
            {
              "internalType": "uint256",
              "name": "minApy",
              "type": "uint256"
            },
            {
              "internalType": "uint16",
              "name": "slippageBps",
              "type": "uint16"
            },
            {
              "internalType": "address",
              "name": "targetProtocol",
              "type": "address"
            },
            {
              "internalType": "uint256",
              "name": "targetChainId",
              "type": "uint256"
            },
            {
              "internalType": "uint256",
              "name": "maxGasPrice",
              "type": "uint256"
            },
            {
              "internalType": "bool",
              "name": "isActive",
              "type": "bool"
            },
            {
              "internalType": "uint256",
              "name": "createdAt",
              "type": "uint256"
            },
            {
              "internalType": "uint256",
              "name": "lastExecuted",
              "type": "uint256"
            }
          ],
          "internalType": "struct IntentManager.Intent[]",
          "name": "intents",
          "type": "tuple[]"
        }
      ],
      "stateMutability": "view",
      "type": "function"
    },
    {
      "inputs": [
        {
          "internalType": "bytes32",
          "name": "role",
          "type": "bytes32"
        },
        {
          "internalType": "address",
          "name": "account",
          "type": "address"
        }
      ],
      "name": "grantRole",
      "outputs": [],
      "stateMutability": "nonpayable",
      "type": "function"
    },
    {
      "inputs": [
        {
          "internalType": "bytes32",
          "name": "role",
          "type": "bytes32"
        },
        {
          "internalType": "address",
          "name": "account",
          "type": "address"
        }
      ],
      "name": "hasRole",
      "outputs": [
        {
          "internalType": "bool",
          "name": "",
          "type": "bool"
        }
      ],
      "stateMutability": "view",
      "type": "function"
    },
    {
      "inputs": [
        {
          "internalType": "address",
          "name": "",
          "type": "address"
        },
        {
          "internalType": "uint256",
          "name": "",
          "type": "uint256"
        }
      ],
      "name": "intentExecuted",
      "outputs": [
        {
          "internalType": "bool",
          "name": "",
          "type": "bool"
        }
      ],
      "stateMutability": "view",
      "type": "function"
    },
    {
      "inputs": [],
      "name": "pause",
      "outputs": [],
      "stateMutability": "nonpayable",
      "type": "function"
    },
    {
      "inputs": [],
      "name": "paused",
      "outputs": [
        {
          "internalType": "bool",
          "name": "",
          "type": "bool"
        }
      ],
      "stateMutability": "view",
      "type": "function"
    },
    {
      "inputs": [
        {
          "internalType": "string",
          "name": "",
          "type": "string"
        }
      ],
      "name": "priceFeedIds",
      "outputs": [
        {
          "internalType": "bytes32",
          "name": "",
          "type": "bytes32"
        }
      ],
      "stateMutability": "view",
      "type": "function"
    },
    {
      "inputs": [
        {
          "internalType": "bytes32",
          "name": "role",
          "type": "bytes32"
        },
        {
          "internalType": "address",
          "name": "callerConfirmation",
          "type": "address"
        }
      ],
      "name": "renounceRole",
      "outputs": [],
      "stateMutability": "nonpayable",
      "type": "function"
    },
    {
      "inputs": [
        {
          "internalType": "bytes32",
          "name": "role",
          "type": "bytes32"
        },
        {
          "internalType": "address",
          "name": "account",
          "type": "address"
        }
      ],
      "name": "revokeRole",
      "outputs": [],
      "stateMutability": "nonpayable",
      "type": "function"
    },
    {
      "inputs": [
        {
          "internalType": "address",
          "name": "bridgeHook_",
          "type": "address"
        }
      ],
      "name": "setBridgeHook",
      "outputs": [],
      "stateMutability": "nonpayable",
      "type": "function"
    },
    {
      "inputs": [
        {
          "components": [
            {
              "internalType": "uint256",
              "name": "minApy",
              "type": "uint256"
            },
            {
              "internalType": "uint16",
              "name": "slippageBps",
              "type": "uint16"
            },
            {
              "internalType": "address",
              "name": "targetProtocol",
              "type": "address"
            },
            {
              "internalType": "uint256",
              "name": "targetChainId",
              "type": "uint256"
            },
            {
              "internalType": "uint256",
              "name": "maxGasPrice",
              "type": "uint256"
            },
            {
              "internalType": "bool",
              "name": "isActive",
              "type": "bool"
            },
            {
              "internalType": "uint256",
              "name": "createdAt",
              "type": "uint256"
            },
            {
              "internalType": "uint256",
              "name": "lastExecuted",
              "type": "uint256"
            }
          ],
          "internalType": "struct IntentManager.Intent",
          "name": "intent",
          "type": "tuple"
        }
      ],
      "name": "submitIntent",
      "outputs": [
        {
          "internalType": "uint256",
          "name": "intentId",
          "type": "uint256"
        }
      ],
      "stateMutability": "nonpayable",
      "type": "function"
    },
    {
      "inputs": [
        {
          "internalType": "uint256",
          "name": "",
          "type": "uint256"
        }
      ],
      "name": "supportedChains",
      "outputs": [
        {
          "internalType": "bool",
          "name": "",
          "type": "bool"
        }
      ],
      "stateMutability": "view",
      "type": "function"
    },
    {
      "inputs": [
        {
          "internalType": "address",
          "name": "",
          "type": "address"
        }
      ],
      "name": "supportedProtocols",
      "outputs": [
        {
          "internalType": "bool",
          "name": "",
          "type": "bool"
        }
      ],
      "stateMutability": "view",
      "type": "function"
    },
    {
      "inputs": [
        {
          "internalType": "bytes4",
          "name": "interfaceId",
          "type": "bytes4"
        }
      ],
      "name": "supportsInterface",
      "outputs": [
        {
          "internalType": "bool",
          "name": "",
          "type": "bool"
        }
      ],
      "stateMutability": "view",
      "type": "function"
    },
    {
      "inputs": [],
      "name": "unpause",
      "outputs": [],
      "stateMutability": "nonpayable",
      "type": "function"
    },
    {
      "inputs": [
        {
          "internalType": "address",
          "name": "",
          "type": "address"
        }
      ],
      "name": "userIntentCount",
      "outputs": [
        {
          "internalType": "uint256",
          "name": "",
          "type": "uint256"
        }
      ],
      "stateMutability": "view",
      "type": "function"
    },
    {
      "inputs": [
        {
          "internalType": "address",
          "name": "",
          "type": "address"
        },
        {
          "internalType": "uint256",
          "name": "",
          "type": "uint256"
        }
      ],
      "name": "userIntents",
      "outputs": [
        {
          "internalType": "uint256",
          "name": "minApy",
          "type": "uint256"
        },
        {
          "internalType": "uint16",
          "name": "slippageBps",
          "type": "uint16"
        },
        {
          "internalType": "address",
          "name": "targetProtocol",
          "type": "address"
        },
        {
          "internalType": "uint256",
          "name": "targetChainId",
          "type": "uint256"
        },
        {
          "internalType": "uint256",
          "name": "maxGasPrice",
          "type": "uint256"
        },
        {
          "internalType": "bool",
          "name": "isActive",
          "type": "bool"
        },
        {
          "internalType": "uint256",
          "name": "createdAt",
          "type": "uint256"
        },
        {
          "internalType": "uint256",
          "name": "lastExecuted",
          "type": "uint256"
        }
      ],
      "stateMutability": "view",
      "type": "function"
    },
    {
      "inputs": [],
      "name": "vault",
      "outputs": [
        {
          "internalType": "contract YieldVault",
          "name": "",
          "type": "address"
        }
      ],
      "stateMutability": "view",
      "type": "function"
    }
  ],
  "bytecode": "0x60a060405234801561000f575f5ffd5b50604051611dea380380611dea83398101604081905261002e9161038c565b600180556001600160a01b0381166080526100495f3361020d565b506100747fcab5a0bfe0b79d2c4b1c2e02599fa044d115b7511f9659307cb42769509677093361020d565b5061011a60066020527fe04895bd6f3b1c6520df69ea63fb7f40c76b0f193fe6afe0d3e744ad58e844198054600160ff1991821681179092557f4fee489f2c5645549467edebb7690ce96a091b14384e43b9fe48d0721542366d80548216831790557334567890123456789012345678901234567890125f527f7f58a99fb8fa9d2402b388af886b37343a27a401f2ee56752db2cfe18ba943e680549091169091179055565b6101ff60076020527fb39221ace053465ec3453ce2b36430bd138b997ecea25c1043da0c366812b8288054600160ff1991821681179092557ec926fc893501ce5ad439ad7af72d794e5fd17fa1b09c50e4c335249310c01380548216831790557f3ed157e83ab1bb1f6b7b3760b3368106283d4e15d1f1b08e20d06576445a999480548216831790557fa7540f530be45c6674dd99d492017379fb77c281d9721ac80290a13fa9877508805482168317905562aa36a75f527fec9873545bb8a5d2d42da3057cc304585f23a42265e7802a750aae6684a6448180549091169091179055565b6102076102b6565b506103b9565b5f828152602081815260408083206001600160a01b038516845290915281205460ff166102ad575f838152602081815260408083206001600160a01b03861684529091529020805460ff191660011790556102653390565b6001600160a01b0316826001600160a01b0316847f2f8788117e7eff1d82e926ec794901d17c78024a50270940304540a733656f0d60405160405180910390a45060016102b0565b505f5b92915050565b7fff064b881a0c0fff844177f881a313ff894bfc6093d33b5514e34d7faa41b7ef60086040516102f090635553444360e01b815260040190565b908152604051908190036020018120919091556208aa8960eb1b81527f0b43555ace6b39aae1b894097d0a9fc17f504c62fea598fa206cc6f5088e6e4590600890600301908152604051908190036020018120919091556414165554d160da1b81527f378d60e7bba68857ecbe974ae1b26e9653e9e6a55650d2e5f12ce45c1c8cea089060089060050190815260405190819003602001902055565b5f6020828403121561039c575f5ffd5b81516001600160a01b03811681146103b2575f5ffd5b9392505050565b6080516119ef6103fb5f395f818161047101528181610ac40152818161109c0152818161113e015281816111bc015281816112d6015261139001526119ef5ff3fe608060405234801561000f575f5ffd5b5060043610610187575f3560e01c80638456cb59116100d9578063b5bfddea11610093578063e66a6b801161006e578063e66a6b801461040a578063e7357f5914610437578063fa3209b214610459578063fbfa77cf1461046c575f5ffd5b8063b5bfddea146103b1578063d547741f146103d8578063d6f48dc1146103eb575f5ffd5b80638456cb5914610308578063866dead31461031057806389c9c3ae1461032357806391d14854146103845780639516041514610397578063a217fddf146103aa575f5ffd5b80632f2ff15d116101445780634f77c4061161011f5780634f77c406146102a8578063548d496f146102c85780635c975abb146102ea578063617a90dc146102f5575f5ffd5b80632f2ff15d1461027857806336568abe1461028d5780633f4ba83a146102a0575f5ffd5b806301ffc9a71461018b5780630ac2d181146101b35780631fc2f811146101e357806322459e1814610204578063248a9ca31461022b5780632b25f5521461024d575b5f5ffd5b61019e61019936600461149f565b610493565b60405190151581526020015b60405180910390f35b6002546101cb9061010090046001600160a01b031681565b6040516001600160a01b0390911681526020016101aa565b6101f66101f13660046114cd565b6104c9565b6040519081526020016101aa565b6101f67fcab5a0bfe0b79d2c4b1c2e02599fa044d115b7511f9659307cb427695096770981565b6101f66102393660046114e7565b5f9081526020819052604090206001015490565b6101f661025b366004611512565b805160208183018101805160088252928201919093012091525481565b61028b6102863660046115d9565b61058f565b005b61028b61029b3660046115d9565b6105b9565b61028b6105f1565b6102bb6102b6366004611607565b610606565b6040516101aa9190611622565b61019e6102d63660046114e7565b60076020525f908152604090205460ff1681565b60025460ff1661019e565b61028b6103033660046114e7565b610811565b61028b6108c9565b61028b61031e366004611607565b6108db565b6103366103313660046116c1565b61090e565b6040805198895261ffff90971660208901526001600160a01b039095169587019590955260608601929092526080850152151560a084015260c083019190915260e0820152610100016101aa565b61019e6103923660046115d9565b61097e565b61028b6103a53660046116eb565b6109a6565b6101f65f81565b6101f67f52ba824bfabc2bcfcdf7f0edbb486ebb05e1836c90e78047efeb949990f72e5f81565b61028b6103e63660046115d9565b610be3565b6101f66103f9366004611607565b60046020525f908152604090205481565b61019e6104183660046116c1565b600560209081525f928352604080842090915290825290205460ff1681565b61019e610445366004611607565b60066020525f908152604090205460ff1681565b6102bb610467366004611607565b610c07565b6101cb7f000000000000000000000000000000000000000000000000000000000000000081565b5f6001600160e01b03198216637965db0b60e01b14806104c357506301ffc9a760e01b6001600160e01b03198316145b92915050565b5f6104d2610d57565b6104da610d81565b6104e382610da7565b50335f908152600460209081526040808320546003835290832080546001810182559084529190922083916007020161051c82826117a4565b5050335f9081526004602052604081208054916105388361186a565b919050555080336001600160a01b03167f2dc75c875690342661429ebec242d93a1fb9ca9b6cf4f4ff586e10a6f20ca6ae844260405161057992919061188d565b60405180910390a361058a60018055565b919050565b5f828152602081905260409020600101546105a981610ec1565b6105b38383610ecb565b50505050565b6001600160a01b03811633146105e25760405163334bd91960e11b815260040160405180910390fd5b6105ec8282610f5a565b505050565b5f6105fb81610ec1565b610603610fc3565b50565b6001600160a01b0381165f90815260046020526040812054606091805b82811015610685576001600160a01b0385165f9081526003602052604090208054829081106106545761065461190f565b5f91825260209091206004600790920201015460ff161561067d57816106798161186a565b9250505b600101610623565b508067ffffffffffffffff81111561069f5761069f6114fe565b6040519080825280602002602001820160405280156106d857816020015b6106c5611453565b8152602001906001900390816106bd5790505b5092505f805b83811015610808576001600160a01b0386165f90815260036020526040902080548290811061070f5761070f61190f565b5f91825260209091206004600790920201015460ff1615610800576001600160a01b0386165f9081526003602052604090208054829081106107535761075361190f565b5f918252602091829020604080516101008101825260079390930290910180548352600181015461ffff811694840194909452620100009093046001600160a01b0316908201526002820154606082015260038201546080820152600482015460ff16151560a0820152600582015460c082015260069091015460e082015285518690849081106107e6576107e661190f565b602002602001018190525081806107fc9061186a565b9250505b6001016106de565b50505050919050565b610819610d57565b335f908152600460205260409020548110610847576040516361ae648360e01b815260040160405180910390fd5b335f9081526003602052604081208054839081106108675761086761190f565b5f91825260209182902060079190910201600401805460ff191692151592909217909155604051428152829133917f0631ca435bf4eb060ca6ec8d081c64bc87b82d79cb3913ad36a717f769732a1a910160405180910390a361060360018055565b5f6108d381610ec1565b610603611015565b5f6108e581610ec1565b50600280546001600160a01b0390921661010002610100600160a81b0319909216919091179055565b6003602052815f5260405f208181548110610927575f80fd5b5f918252602090912060079091020180546001820154600283015460038401546004850154600586015460069096015494975061ffff84169650620100009093046001600160a01b0316949193909260ff16919088565b5f918252602082815260408084206001600160a01b0393909316845291905290205460ff1690565b7fcab5a0bfe0b79d2c4b1c2e02599fa044d115b7511f9659307cb42769509677096109d081610ec1565b6109d8610d57565b6109e0610d81565b6001600160a01b0385165f908152600460205260409020548410610a17576040516361ae648360e01b815260040160405180910390fd5b6001600160a01b0385165f908152600360205260408120805486908110610a4057610a4061190f565b5f9182526020909120600790910201600481015490915060ff16610a775760405163414c060160e01b815260040160405180910390fd5b428160060154610e10610a8a9190611923565b1115610aa9576040516361ae648360e01b815260040160405180910390fd5b5f610ab687838787611052565b90504282600601819055505f7f00000000000000000000000000000000000000000000000000000000000000006001600160a01b03166301e1d1146040518163ffffffff1660e01b8152600401602060405180830381865afa158015610b1e573d5f5f3e3d5ffd5b505050506040513d601f19601f82011682018060405250810190610b429190611936565b90505f5f8211610b53578354610b76565b81610b608461271061194d565b610b6a9190611964565b8454610b769190611923565b905087896001600160a01b03167fb1f2cae6ec8018216f418980ea73bf6b652be3b4088a425dafefa21134d8fc8a858442604051610bc7939291909283526020830191909152604082015260600190565b60405180910390a350505050610bdc60018055565b5050505050565b5f82815260208190526040902060010154610bfd81610ec1565b6105b38383610f5a565b6001600160a01b0381165f908152600460205260409020546060908067ffffffffffffffff811115610c3b57610c3b6114fe565b604051908082528060200260200182016040528015610c7457816020015b610c61611453565b815260200190600190039081610c595790505b5091505f5b81811015610d50576001600160a01b0384165f908152600360205260409020805482908110610caa57610caa61190f565b5f918252602091829020604080516101008101825260079390930290910180548352600181015461ffff811694840194909452620100009093046001600160a01b0316908201526002820154606082015260038201546080820152600482015460ff16151560a0820152600582015460c082015260069091015460e08201528351849083908110610d3d57610d3d61190f565b6020908102919091010152600101610c79565b5050919050565b600260015403610d7a57604051633ee5aeb560e01b815260040160405180910390fd5b6002600155565b60025460ff1615610da55760405163d93c066560e01b815260040160405180910390fd5b565b80351580610db757506127108135115b15610dd557604051633edae5df60e11b815260040160405180910390fd5b6103e8610de86040830160208401611983565b61ffff161115610e0b5760405163334ee9a160e01b815260040160405180910390fd5b5f610e1c6060830160408401611607565b6001600160a01b031614158015610e5f575060065f610e416060840160408501611607565b6001600160a01b0316815260208101919091526040015f205460ff16155b15610e7d5760405163743f26e160e01b815260040160405180910390fd5b606081013515801590610ea3575060608101355f9081526007602052604090205460ff16155b156106035760405163d21eab3760e01b815260040160405180910390fd5b61060381336113ef565b5f610ed6838361097e565b610f53575f838152602081815260408083206001600160a01b03861684529091529020805460ff19166001179055610f0b3390565b6001600160a01b0316826001600160a01b0316847f2f8788117e7eff1d82e926ec794901d17c78024a50270940304540a733656f0d60405160405180910390a45060016104c3565b505f6104c3565b5f610f65838361097e565b15610f53575f838152602081815260408083206001600160a01b0386168085529252808320805460ff1916905551339286917ff6391f5c32d9c69d2a47ea670b442974b53935d1edc7fd64eb21e047a839171b9190a45060016104c3565b610fcb611430565b6002805460ff191690557f5db9ee0a495bf2e6ff9c91a7834c1ba4fdd244a5e8aa4e537bd38aeae4b073aa335b6040516001600160a01b03909116815260200160405180910390a1565b61101d610d81565b6002805460ff191660011790557f62e78cea01bee320cd4e420270b5ea74000d11b0c9f74754ebdbfc544b05a258610ff83390565b5f83600201545f14158015611076575060025461010090046001600160a01b031615155b156112ab576040516370a0823160e01b81526001600160a01b0386811660048301525f917f0000000000000000000000000000000000000000000000000000000000000000909116906370a0823190602401602060405180830381865afa1580156110e3573d5f5f3e3d5ffd5b505050506040513d601f19601f820116820180604052508101906111079190611936565b905080156112a957600254604051631ea7001f60e21b81526101009091046001600160a01b039081166004830152602482018390527f00000000000000000000000000000000000000000000000000000000000000001690637a9c007c906044015f604051808303815f87803b15801561117f575f5ffd5b505af1158015611191573d5f5f3e3d5ffd5b50505050600260019054906101000a90046001600160a01b03166001600160a01b031663f25bda10877f00000000000000000000000000000000000000000000000000000000000000006001600160a01b0316639e19789d6040518163ffffffff1660e01b8152600401602060405180830381865afa158015611216573d5f5f3e3d5ffd5b505050506040513d601f19601f8201168201806040525081019061123a919061199e565b60028901546040516001600160e01b031960e086901b1681526001600160a01b0393841660048201529290911660248301526044820185905260648201526084015f604051808303815f87803b158015611292575f5ffd5b505af11580156112a4573d5f5f3e3d5ffd5b505050505b505b83546040516370a0823160e01b81526001600160a01b03878116600483015261016d926127109290917f000000000000000000000000000000000000000000000000000000000000000016906370a0823190602401602060405180830381865afa15801561131b573d5f5f3e3d5ffd5b505050506040513d601f19601f8201168201806040525081019061133f9190611936565b611349919061194d565b6113539190611964565b61135d9190611964565b8454604051630182a29360e41b81526001600160a01b0388811660048301526024820184905260448201929092529192507f0000000000000000000000000000000000000000000000000000000000000000169063182a2930906064015f604051808303815f87803b1580156113d1575f5ffd5b505af11580156113e3573d5f5f3e3d5ffd5b50505050949350505050565b6113f9828261097e565b61142c5760405163e2517d3f60e01b81526001600160a01b03821660048201526024810183905260440160405180910390fd5b5050565b60025460ff16610da557604051638dfc202b60e01b815260040160405180910390fd5b6040518061010001604052805f81526020015f61ffff1681526020015f6001600160a01b031681526020015f81526020015f81526020015f151581526020015f81526020015f81525090565b5f602082840312156114af575f5ffd5b81356001600160e01b0319811681146114c6575f5ffd5b9392505050565b5f6101008284031280156114df575f5ffd5b509092915050565b5f602082840312156114f7575f5ffd5b5035919050565b634e487b7160e01b5f52604160045260245ffd5b5f60208284031215611522575f5ffd5b813567ffffffffffffffff811115611538575f5ffd5b8201601f81018413611548575f5ffd5b803567ffffffffffffffff811115611562576115626114fe565b604051601f8201601f19908116603f0116810167ffffffffffffffff81118282101715611591576115916114fe565b6040528181528282016020018610156115a8575f5ffd5b816020840160208301375f91810160200191909152949350505050565b6001600160a01b0381168114610603575f5ffd5b5f5f604083850312156115ea575f5ffd5b8235915060208301356115fc816115c5565b809150509250929050565b5f60208284031215611617575f5ffd5b81356114c6816115c5565b602080825282518282018190525f918401906040840190835b818110156116b65783518051845261ffff602082015116602085015260018060a01b036040820151166040850152606081015160608501526080810151608085015260a0810151151560a085015260c081015160c085015260e081015160e0850152506101008301925060208401935060018101905061163b565b509095945050505050565b5f5f604083850312156116d2575f5ffd5b82356116dd816115c5565b946020939093013593505050565b5f5f5f5f606085870312156116fe575f5ffd5b8435611709816115c5565b935060208501359250604085013567ffffffffffffffff81111561172b575f5ffd5b8501601f8101871361173b575f5ffd5b803567ffffffffffffffff811115611751575f5ffd5b876020828401011115611762575f5ffd5b949793965060200194505050565b61ffff81168114610603575f5ffd5b5f81356104c3816115c5565b8015158114610603575f5ffd5b5f81356104c38161178b565b813581556001810160208301356117ba81611770565b61ffff811661ffff19835416178255506118016117d96040850161177f565b82805462010000600160b01b03191660109290921b62010000600160b01b0316919091179055565b50606082013560028201556080820135600382015561183e61182560a08401611798565b6004830160ff1981541660ff8315151681178255505050565b60c0820135600582015560e090910135600690910155565b634e487b7160e01b5f52601160045260245ffd5b5f6001820161187b5761187b611856565b5060010190565b803561058a8161178b565b82358152610120810160208401356118a481611770565b61ffff16602083015260408401356118bb816115c5565b6001600160a01b0316604083015260608481013590830152608080850135908301526118e960a08501611882565b151560a083015260c0848101359083015260e09384013593820193909352610100015290565b634e487b7160e01b5f52603260045260245ffd5b808201808211156104c3576104c3611856565b5f60208284031215611946575f5ffd5b5051919050565b80820281158282048414176104c3576104c3611856565b5f8261197e57634e487b7160e01b5f52601260045260245ffd5b500490565b5f60208284031215611993575f5ffd5b81356114c681611770565b5f602082840312156119ae575f5ffd5b81516114c6816115c556fea26469706673582212206ab2e06056f3b7de5e2a549454bb118656a9766c85c47f371daff52d0e15580464736f6c634300081c0033",
  "linkReferences": {},
  "deployedLinkReferences": {},
  "immutableReferences": {
    "6282": [
      {
        "length": 32,
        "start": 1137
      },
      {
        "length": 32,
        "start": 2756
      },
      {
        "length": 32,
        "start": 4252
      },
      {
        "length": 32,
        "start": 4414
      },
      {
        "length": 32,
        "start": 4540
      },
      {
        "length": 32,
        "start": 4822
      },
      {
        "length": 32,
        "start": 5008
      }
    ]
  },
  "inputSourceName": "project/contracts/IntentManager.sol",
  "buildInfoId": "solc-0_8_28-46060cc2fee7d18199eb9f379d71dd33510259f0"
}