{
  "_format": "hh3-artifact-1",
  "contractName": "YieldVault",
  "sourceName": "contracts/YieldVault.sol",
  "abi": [
    {
      "inputs": [
        {
          "internalType": "string",
          "name": "name_",
          "type": "string"
        },
        {
          "internalType": "string",
          "name": "symbol_",
          "type": "string"
        },
        {
          "internalType": "address",
          "name": "pyusd_",
          "type": "address"
        }
      ],
      "stateMutability": "nonpayable",
      "type": "constructor"
    },
    {
      "inputs": [],
      "name": "AccessControlBadConfirmation",
      "type": "error"
    },
    {
      "inputs": [
        {
          "internalType": "address",
          "name": "account",
          "type": "address"
        },
        {
          "internalType": "bytes32",
          "name": "neededRole",
          "type": "bytes32"
        }
      ],
      "name": "AccessControlUnauthorizedAccount",
      "type": "error"
    },
    {
      "inputs": [
        {
          "internalType": "address",
          "name": "spender",
          "type": "address"
        },
        {
          "internalType": "uint256",
          "name": "allowance",
          "type": "uint256"
        },
        {
          "internalType": "uint256",
          "name": "needed",
          "type": "uint256"
        }
      ],
      "name": "ERC20InsufficientAllowance",
      "type": "error"
    },
    {
      "inputs": [
        {
          "internalType": "address",
          "name": "sender",
          "type": "address"
        },
        {
          "internalType": "uint256",
          "name": "balance",
          "type": "uint256"
        },
        {
          "internalType": "uint256",
          "name": "needed",
          "type": "uint256"
        }
      ],
      "name": "ERC20InsufficientBalance",
      "type": "error"
    },
    {
      "inputs": [
        {
          "internalType": "address",
          "name": "approver",
          "type": "address"
        }
      ],
      "name": "ERC20InvalidApprover",
      "type": "error"
    },
    {
      "inputs": [
        {
          "internalType": "address",
          "name": "receiver",
          "type": "address"
        }
      ],
      "name": "ERC20InvalidReceiver",
      "type": "error"
    },
    {
      "inputs": [
        {
          "internalType": "address",
          "name": "sender",
          "type": "address"
        }
      ],
      "name": "ERC20InvalidSender",
      "type": "error"
    },
    {
      "inputs": [
        {
          "internalType": "address",
          "name": "spender",
          "type": "address"
        }
      ],
      "name": "ERC20InvalidSpender",
      "type": "error"
    },
    {
      "inputs": [
        {
          "internalType": "address",
          "name": "receiver",
          "type": "address"
        },
        {
          "internalType": "uint256",
          "name": "assets",
          "type": "uint256"
        },
        {
          "internalType": "uint256",
          "name": "max",
          "type": "uint256"
        }
      ],
      "name": "ERC4626ExceededMaxDeposit",
      "type": "error"
    },
    {
      "inputs": [
        {
          "internalType": "address",
          "name": "receiver",
          "type": "address"
        },
        {
          "internalType": "uint256",
          "name": "shares",
          "type": "uint256"
        },
        {
          "internalType": "uint256",
          "name": "max",
          "type": "uint256"
        }
      ],
      "name": "ERC4626ExceededMaxMint",
      "type": "error"
    },
    {
      "inputs": [
        {
          "internalType": "address",
          "name": "owner",
          "type": "address"
        },
        {
          "internalType": "uint256",
          "name": "shares",
          "type": "uint256"
        },
        {
          "internalType": "uint256",
          "name": "max",
          "type": "uint256"
        }
      ],
      "name": "ERC4626ExceededMaxRedeem",
      "type": "error"
    },
    {
      "inputs": [
        {
          "internalType": "address",
          "name": "owner",
          "type": "address"
        },
        {
          "internalType": "uint256",
          "name": "assets",
          "type": "uint256"
        },
        {
          "internalType": "uint256",
          "name": "max",
          "type": "uint256"
        }
      ],
      "name": "ERC4626ExceededMaxWithdraw",
      "type": "error"
    },
    {
      "inputs": [],
      "name": "EnforcedPause",
      "type": "error"
    },
    {
      "inputs": [],
      "name": "ExpectedPause",
      "type": "error"
    },
    {
      "inputs": [],
      "name": "InsufficientBalance",
      "type": "error"
    },
    {
      "inputs": [],
      "name": "InvalidAmount",
      "type": "error"
    },
    {
      "inputs": [],
      "name": "InvalidBridge",
      "type": "error"
    },
    {
      "inputs": [],
      "name": "InvalidConfidence",
      "type": "error"
    },
    {
      "inputs": [],
      "name": "PythPriceStale",
      "type": "error"
    },
    {
      "inputs": [],
      "name": "ReentrancyGuardReentrantCall",
      "type": "error"
    },
    {
      "inputs": [
        {
          "internalType": "address",
          "name": "token",
          "type": "address"
        }
      ],
      "name": "SafeERC20FailedOperation",
      "type": "error"
    },
    {
      "inputs": [],
      "name": "UnauthorizedAgent",
      "type": "error"
    },
    {
      "inputs": [],
      "name": "VaultPaused",
      "type": "error"
    },
    {
      "anonymous": false,
      "inputs": [
        {
          "indexed": true,
          "internalType": "address",
          "name": "owner",
          "type": "address"
        },
        {
          "indexed": true,
          "internalType": "address",
          "name": "spender",
          "type": "address"
        },
        {
          "indexed": false,
          "internalType": "uint256",
          "name": "value",
          "type": "uint256"
        }
      ],
      "name": "Approval",
      "type": "event"
    },
    {
      "anonymous": false,
      "inputs": [
        {
          "indexed": true,
          "internalType": "address",
          "name": "bridge",
          "type": "address"
        },
        {
          "indexed": false,
          "internalType": "uint256",
          "name": "amount",
          "type": "uint256"
        },
        {
          "indexed": false,
          "internalType": "uint256",
          "name": "timestamp",
          "type": "uint256"
        }
      ],
      "name": "BridgeApproval",
      "type": "event"
    },
    {
      "anonymous": false,
      "inputs": [
        {
          "indexed": true,
          "internalType": "address",
          "name": "sender",
          "type": "address"
        },
        {
          "indexed": true,
          "internalType": "address",
          "name": "owner",
          "type": "address"
        },
        {
          "indexed": false,
          "internalType": "uint256",
          "name": "assets",
          "type": "uint256"
        },
        {
          "indexed": false,
          "internalType": "uint256",
          "name": "shares",
          "type": "uint256"
        }
      ],
      "name": "Deposit",
      "type": "event"
    },
    {
      "anonymous": false,
      "inputs": [
        {
          "indexed": true,
          "internalType": "address",
          "name": "user",
          "type": "address"
        },
        {
          "indexed": false,
          "internalType": "uint256",
          "name": "amount",
          "type": "uint256"
        },
        {
          "indexed": false,
          "internalType": "uint256",
          "name": "shares",
          "type": "uint256"
        },
        {
          "indexed": false,
          "internalType": "uint256",
          "name": "timestamp",
          "type": "uint256"
        }
      ],
      "name": "DepositEvent",
      "type": "event"
    },
    {
      "anonymous": false,
      "inputs": [
        {
          "indexed": false,
          "internalType": "address",
          "name": "account",
          "type": "address"
        }
      ],
      "name": "Paused",
      "type": "event"
    },
    {
      "anonymous": false,
      "inputs": [
        {
          "indexed": true,
          "internalType": "address",
          "name": "user",
          "type": "address"
        },
        {
          "indexed": false,
          "internalType": "uint256",
          "name": "yieldGained",
          "type": "uint256"
        },
        {
          "indexed": false,
          "internalType": "uint256",
          "name": "newAPY",
          "type": "uint256"
        },
        {
          "indexed": false,
          "internalType": "uint256",
          "name": "timestamp",
          "type": "uint256"
        }
      ],
      "name": "RebalanceExecuted",
      "type": "event"
    },
    {
      "anonymous": false,
      "inputs": [
        {
          "indexed": true,
          "internalType": "bytes32",
          "name": "role",
          "type": "bytes32"
        },
        {
          "indexed": true,
          "internalType": "bytes32",
          "name": "previousAdminRole",
          "type": "bytes32"
        },
        {
          "indexed": true,
          "internalType": "bytes32",
          "name": "newAdminRole",
          "type": "bytes32"
        }
      ],
      "name": "RoleAdminChanged",
      "type": "event"
    },
    {
      "anonymous": false,
      "inputs": [
        {
          "indexed": true,
          "internalType": "bytes32",
          "name": "role",
          "type": "bytes32"
        },
        {
          "indexed": true,
          "internalType": "address",
          "name": "account",
          "type": "address"
        },
        {
          "indexed": true,
          "internalType": "address",
          "name": "sender",
          "type": "address"
        }
      ],
      "name": "RoleGranted",
      "type": "event"
    },
    {
      "anonymous": false,
      "inputs": [
        {
          "indexed": true,
          "internalType": "bytes32",
          "name": "role",
          "type": "bytes32"
        },
        {
          "indexed": true,
          "internalType": "address",
          "name": "account",
          "type": "address"
        },
        {
          "indexed": true,
          "internalType": "address",
          "name": "sender",
          "type": "address"
        }
      ],
      "name": "RoleRevoked",
      "type": "event"
    },
    {
      "anonymous": false,
      "inputs": [
        {
          "indexed": true,
          "internalType": "address",
          "name": "from",
          "type": "address"
        },
        {
          "indexed": true,
          "internalType": "address",
          "name": "to",
          "type": "address"
        },
        {
          "indexed": false,
          "internalType": "uint256",
          "name": "value",
          "type": "uint256"
        }
      ],
      "name": "Transfer",
      "type": "event"
    },
    {
      "anonymous": false,
      "inputs": [
        {
          "indexed": false,
          "internalType": "address",
          "name": "account",
          "type": "address"
        }
      ],
      "name": "Unpaused",
      "type": "event"
    },
    {
      "anonymous": false,
      "inputs": [
        {
          "indexed": true,
          "internalType": "address",
          "name": "sender",
          "type": "address"
        },
        {
          "indexed": true,
          "internalType": "address",
          "name": "receiver",
          "type": "address"
        },
        {
          "indexed": true,
          "internalType": "address",
          "name": "owner",
          "type": "address"
        },
        {
          "indexed": false,
          "internalType": "uint256",
          "name": "assets",
          "type": "uint256"
        },
        {
          "indexed": false,
          "internalType": "uint256",
          "name": "shares",
          "type": "uint256"
        }
      ],
      "name": "Withdraw",
      "type": "event"
    },
    {
      "anonymous": false,
      "inputs": [
        {
          "indexed": true,
          "internalType": "address",
          "name": "user",
          "type": "address"
        },
        {
          "indexed": false,
          "internalType": "uint256",
          "name": "shares",
          "type": "uint256"
        },
        {
          "indexed": false,
          "internalType": "uint256",
          "name": "amount",
          "type": "uint256"
        },
        {
          "indexed": false,
          "internalType": "uint256",
          "name": "timestamp",
          "type": "uint256"
        }
      ],
      "name": "WithdrawEvent",
      "type": "event"
    },
    {
      "anonymous": false,
      "inputs": [
        {
          "indexed": true,
          "internalType": "address",
          "name": "user",
          "type": "address"
        },
        {
          "indexed": false,
          "internalType": "uint256",
          "name": "yieldAmount",
          "type": "uint256"
        },
        {
          "indexed": false,
          "internalType": "uint256",
          "name": "totalYield",
          "type": "uint256"
        },
        {
          "indexed": false,
          "internalType": "uint256",
          "name": "timestamp",
          "type": "uint256"
        }
      ],
      "name": "YieldAccrued",
      "type": "event"
    },
    {
      "inputs": [],
      "name": "AGENT_ROLE",
      "outputs": [
        {
          "internalType": "bytes32",
          "name": "",
          "type": "bytes32"
        }
      ],
      "stateMutability": "view",
      "type": "function"
    },
    {
      "inputs": [],
      "name": "BRIDGE_ROLE",
      "outputs": [
        {
          "internalType": "bytes32",
          "name": "",
          "type": "bytes32"
        }
      ],
      "stateMutability": "view",
      "type": "function"
    },
    {
      "inputs": [],
      "name": "DEFAULT_ADMIN_ROLE",
      "outputs": [
        {
          "internalType": "bytes32",
          "name": "",
          "type": "bytes32"
        }
      ],
      "stateMutability": "view",
      "type": "function"
    },
    {
      "inputs": [],
      "name": "MAX_DEPOSIT",
      "outputs": [
        {
          "internalType": "uint256",
          "name": "",
          "type": "uint256"
        }
      ],
      "stateMutability": "view",
      "type": "function"
    },
    {
      "inputs": [],
      "name": "MIN_DEPOSIT",
      "outputs": [
        {
          "internalType": "uint256",
          "name": "",
          "type": "uint256"
        }
      ],
      "stateMutability": "view",
      "type": "function"
    },
    {
      "inputs": [],
      "name": "PYUSD",
      "outputs": [
        {
          "internalType": "contract IERC20",
          "name": "",
          "type": "address"
        }
      ],
      "stateMutability": "view",
      "type": "function"
    },
    {
      "inputs": [
        {
          "internalType": "address",
          "name": "owner",
          "type": "address"
        },
        {
          "internalType": "address",
          "name": "spender",
          "type": "address"
        }
      ],
      "name": "allowance",
      "outputs": [
        {
          "internalType": "uint256",
          "name": "",
          "type": "uint256"
        }
      ],
      "stateMutability": "view",
      "type": "function"
    },
    {
      "inputs": [
        {
          "internalType": "address",
          "name": "spender",
          "type": "address"
        },
        {
          "internalType": "uint256",
          "name": "value",
          "type": "uint256"
        }
      ],
      "name": "approve",
      "outputs": [
        {
          "internalType": "bool",
          "name": "",
          "type": "bool"
        }
      ],
      "stateMutability": "nonpayable",
      "type": "function"
    },
    {
      "inputs": [
        {
          "internalType": "address",
          "name": "bridge",
          "type": "address"
        },
        {
          "internalType": "uint256",
          "name": "amount",
          "type": "uint256"
        }
      ],
      "name": "approveForBridge",
      "outputs": [],
      "stateMutability": "nonpayable",
      "type": "function"
    },
    {
      "inputs": [],
      "name": "asset",
      "outputs": [
        {
          "internalType": "address",
          "name": "",
          "type": "address"
        }
      ],
      "stateMutability": "view",
      "type": "function"
    },
    {
      "inputs": [
        {
          "internalType": "address",
          "name": "account",
          "type": "address"
        }
      ],
      "name": "balanceOf",
      "outputs": [
        {
          "internalType": "uint256",
          "name": "",
          "type": "uint256"
        }
      ],
      "stateMutability": "view",
      "type": "function"
    },
    {
      "inputs": [],
      "name": "bridgeHook",
      "outputs": [
        {
          "internalType": "contract IBridgeHook",
          "name": "",
          "type": "address"
        }
      ],
      "stateMutability": "view",
      "type": "function"
    },
    {
      "inputs": [
        {
          "internalType": "uint256",
          "name": "shares",
          "type": "uint256"
        }
      ],
      "name": "convertToAssets",
      "outputs": [
        {
          "internalType": "uint256",
          "name": "",
          "type": "uint256"
        }
      ],
      "stateMutability": "view",
      "type": "function"
    },
    {
      "inputs": [
        {
          "internalType": "uint256",
          "name": "assets",
          "type": "uint256"
        }
      ],
      "name": "convertToShares",
      "outputs": [
        {
          "internalType": "uint256",
          "name": "",
          "type": "uint256"
        }
      ],
      "stateMutability": "view",
      "type": "function"
    },
    {
      "inputs": [],
      "name": "decimals",
      "outputs": [
        {
          "internalType": "uint8",
          "name": "",
          "type": "uint8"
        }
      ],
      "stateMutability": "view",
      "type": "function"
    },
    {
      "inputs": [
        {
          "internalType": "uint256",
          "name": "assets",
          "type": "uint256"
        },
        {
          "internalType": "address",
          "name": "receiver",
          "type": "address"
        }
      ],
      "name": "deposit",
      "outputs": [
        {
          "internalType": "uint256",
          "name": "shares",
          "type": "uint256"
        }
      ],
      "stateMutability": "nonpayable",
      "type": "function"
    },
    {
      "inputs": [
        {
          "internalType": "address",
          "name": "user",
          "type": "address"
        },
        {
          "internalType": "uint256",
          "name": "yieldGained",
          "type": "uint256"
        },
        {
          "internalType": "uint256",
          "name": "newAPY",
          "type": "uint256"
        }
      ],
      "name": "executeRebalance",
      "outputs": [],
      "stateMutability": "nonpayable",
      "type": "function"
    },
    {
      "inputs": [
        {
          "internalType": "address",
          "name": "user",
          "type": "address"
        }
      ],
      "name": "getBalance",
      "outputs": [
        {
          "internalType": "uint256",
          "name": "balance",
          "type": "uint256"
        }
      ],
      "stateMutability": "view",
      "type": "function"
    },
    {
      "inputs": [
        {
          "internalType": "bytes32",
          "name": "role",
          "type": "bytes32"
        }
      ],
      "name": "getRoleAdmin",
      "outputs": [
        {
          "internalType": "bytes32",
          "name": "",
          "type": "bytes32"
        }
      ],
      "stateMutability": "view",
      "type": "function"
    },
    {
      "inputs": [
        {
          "internalType": "address",
          "name": "user",
          "type": "address"
        }
      ],
      "name": "getYield",
      "outputs": [
        {
          "internalType": "uint256",
          "name": "yield",
          "type": "uint256"
        }
      ],
      "stateMutability": "view",
      "type": "function"
    },
    {
      "inputs": [
        {
          "internalType": "bytes32",
          "name": "role",
          "type": "bytes32"
        },
        {
          "internalType": "address",
          "name": "account",
          "type": "address"
        }
      ],
      "name": "grantRole",
      "outputs": [],
      "stateMutability": "nonpayable",
      "type": "function"
    },
    {
      "inputs": [
        {
          "internalType": "bytes32",
          "name": "role",
          "type": "bytes32"
        },
        {
          "internalType": "address",
          "name": "account",
          "type": "address"
        }
      ],
      "name": "hasRole",
      "outputs": [
        {
          "internalType": "bool",
          "name": "",
          "type": "bool"
        }
      ],
      "stateMutability": "view",
      "type": "function"
    },
    {
      "inputs": [
        {
          "internalType": "address",
          "name": "",
          "type": "address"
        }
      ],
      "name": "maxDeposit",
      "outputs": [
        {
          "internalType": "uint256",
          "name": "",
          "type": "uint256"
        }
      ],
      "stateMutability": "view",
      "type": "function"
    },
    {
      "inputs": [
        {
          "internalType": "address",
          "name": "",
          "type": "address"
        }
      ],
      "name": "maxMint",
      "outputs": [
        {
          "internalType": "uint256",
          "name": "",
          "type": "uint256"
        }
      ],
      "stateMutability": "view",
      "type": "function"
    },
    {
      "inputs": [
        {
          "internalType": "address",
          "name": "owner",
          "type": "address"
        }
      ],
      "name": "maxRedeem",
      "outputs": [
        {
          "internalType": "uint256",
          "name": "",
          "type": "uint256"
        }
      ],
      "stateMutability": "view",
      "type": "function"
    },
    {
      "inputs": [
        {
          "internalType": "address",
          "name": "owner",
          "type": "address"
        }
      ],
      "name": "maxWithdraw",
      "outputs": [
        {
          "internalType": "uint256",
          "name": "",
          "type": "uint256"
        }
      ],
      "stateMutability": "view",
      "type": "function"
    },
    {
      "inputs": [
        {
          "internalType": "uint256",
          "name": "shares",
          "type": "uint256"
        },
        {
          "internalType": "address",
          "name": "receiver",
          "type": "address"
        }
      ],
      "name": "mint",
      "outputs": [
        {
          "internalType": "uint256",
          "name": "",
          "type": "uint256"
        }
      ],
      "stateMutability": "nonpayable",
      "type": "function"
    },
    {
      "inputs": [],
      "name": "name",
      "outputs": [
        {
          "internalType": "string",
          "name": "",
          "type": "string"
        }
      ],
      "stateMutability": "view",
      "type": "function"
    },
    {
      "inputs": [],
      "name": "pause",
      "outputs": [],
      "stateMutability": "nonpayable",
      "type": "function"
    },
    {
      "inputs": [],
      "name": "paused",
      "outputs": [
        {
          "internalType": "bool",
          "name": "",
          "type": "bool"
        }
      ],
      "stateMutability": "view",
      "type": "function"
    },
    {
      "inputs": [
        {
          "internalType": "uint256",
          "name": "assets",
          "type": "uint256"
        }
      ],
      "name": "previewDeposit",
      "outputs": [
        {
          "internalType": "uint256",
          "name": "",
          "type": "uint256"
        }
      ],
      "stateMutability": "view",
      "type": "function"
    },
    {
      "inputs": [
        {
          "internalType": "uint256",
          "name": "shares",
          "type": "uint256"
        }
      ],
      "name": "previewMint",
      "outputs": [
        {
          "internalType": "uint256",
          "name": "",
          "type": "uint256"
        }
      ],
      "stateMutability": "view",
      "type": "function"
    },
    {
      "inputs": [
        {
          "internalType": "uint256",
          "name": "shares",
          "type": "uint256"
        }
      ],
      "name": "previewRedeem",
      "outputs": [
        {
          "internalType": "uint256",
          "name": "",
          "type": "uint256"
        }
      ],
      "stateMutability": "view",
      "type": "function"
    },
    {
      "inputs": [
        {
          "internalType": "uint256",
          "name": "assets",
          "type": "uint256"
        }
      ],
      "name": "previewWithdraw",
      "outputs": [
        {
          "internalType": "uint256",
          "name": "",
          "type": "uint256"
        }
      ],
      "stateMutability": "view",
      "type": "function"
    },
    {
      "inputs": [
        {
          "internalType": "uint256",
          "name": "shares",
          "type": "uint256"
        },
        {
          "internalType": "address",
          "name": "receiver",
          "type": "address"
        },
        {
          "internalType": "address",
          "name": "owner",
          "type": "address"
        }
      ],
      "name": "redeem",
      "outputs": [
        {
          "internalType": "uint256",
          "name": "assets",
          "type": "uint256"
        }
      ],
      "stateMutability": "nonpayable",
      "type": "function"
    },
    {
      "inputs": [
        {
          "internalType": "bytes32",
          "name": "role",
          "type": "bytes32"
        },
        {
          "internalType": "address",
          "name": "callerConfirmation",
          "type": "address"
        }
      ],
      "name": "renounceRole",
      "outputs": [],
      "stateMutability": "nonpayable",
      "type": "function"
    },
    {
      "inputs": [
        {
          "internalType": "bytes32",
          "name": "role",
          "type": "bytes32"
        },
        {
          "internalType": "address",
          "name": "account",
          "type": "address"
        }
      ],
      "name": "revokeRole",
      "outputs": [],
      "stateMutability": "nonpayable",
      "type": "function"
    },
    {
      "inputs": [
        {
          "internalType": "address",
          "name": "bridgeHook_",
          "type": "address"
        }
      ],
      "name": "setBridgeHook",
      "outputs": [],
      "stateMutability": "nonpayable",
      "type": "function"
    },
    {
      "inputs": [
        {
          "internalType": "bytes4",
          "name": "interfaceId",
          "type": "bytes4"
        }
      ],
      "name": "supportsInterface",
      "outputs": [
        {
          "internalType": "bool",
          "name": "",
          "type": "bool"
        }
      ],
      "stateMutability": "view",
      "type": "function"
    },
    {
      "inputs": [],
      "name": "symbol",
      "outputs": [
        {
          "internalType": "string",
          "name": "",
          "type": "string"
        }
      ],
      "stateMutability": "view",
      "type": "function"
    },
    {
      "inputs": [],
      "name": "totalAssets",
      "outputs": [
        {
          "internalType": "uint256",
          "name": "",
          "type": "uint256"
        }
      ],
      "stateMutability": "view",
      "type": "function"
    },
    {
      "inputs": [],
      "name": "totalSupply",
      "outputs": [
        {
          "internalType": "uint256",
          "name": "",
          "type": "uint256"
        }
      ],
      "stateMutability": "view",
      "type": "function"
    },
    {
      "inputs": [],
      "name": "totalYieldEarned",
      "outputs": [
        {
          "internalType": "uint256",
          "name": "",
          "type": "uint256"
        }
      ],
      "stateMutability": "view",
      "type": "function"
    },
    {
      "inputs": [
        {
          "internalType": "address",
          "name": "to",
          "type": "address"
        },
        {
          "internalType": "uint256",
          "name": "value",
          "type": "uint256"
        }
      ],
      "name": "transfer",
      "outputs": [
        {
          "internalType": "bool",
          "name": "",
          "type": "bool"
        }
      ],
      "stateMutability": "nonpayable",
      "type": "function"
    },
    {
      "inputs": [
        {
          "internalType": "address",
          "name": "from",
          "type": "address"
        },
        {
          "internalType": "address",
          "name": "to",
          "type": "address"
        },
        {
          "internalType": "uint256",
          "name": "value",
          "type": "uint256"
        }
      ],
      "name": "transferFrom",
      "outputs": [
        {
          "internalType": "bool",
          "name": "",
          "type": "bool"
        }
      ],
      "stateMutability": "nonpayable",
      "type": "function"
    },
    {
      "inputs": [],
      "name": "unpause",
      "outputs": [],
      "stateMutability": "nonpayable",
      "type": "function"
    },
    {
      "inputs": [
        {
          "internalType": "address",
          "name": "",
          "type": "address"
        }
      ],
      "name": "userLastDepositTime",
      "outputs": [
        {
          "internalType": "uint256",
          "name": "",
          "type": "uint256"
        }
      ],
      "stateMutability": "view",
      "type": "function"
    },
    {
      "inputs": [
        {
          "internalType": "address",
          "name": "",
          "type": "address"
        }
      ],
      "name": "userYieldEarned",
      "outputs": [
        {
          "internalType": "uint256",
          "name": "",
          "type": "uint256"
        }
      ],
      "stateMutability": "view",
      "type": "function"
    },
    {
      "inputs": [
        {
          "internalType": "uint256",
          "name": "assets",
          "type": "uint256"
        },
        {
          "internalType": "address",
          "name": "receiver",
          "type": "address"
        },
        {
          "internalType": "address",
          "name": "owner",
          "type": "address"
        }
      ],
      "name": "withdraw",
      "outputs": [
        {
          "internalType": "uint256",
          "name": "shares",
          "type": "uint256"
        }
      ],
      "stateMutability": "nonpayable",
      "type": "function"
    }
  ],
  "bytecode": "0x60e060405234801561000f575f5ffd5b5060405161228138038061228183398101604081905261002e916102ee565b808383600361003d83826103f7565b50600461004a82826103f7565b5050505f5f61005e836100ce60201b60201c565b915091508161006e576012610070565b805b60ff1660a05250506001600160a01b039081166080526001600555811660c05261009a5f336101a4565b506100c57fcab5a0bfe0b79d2c4b1c2e02599fa044d115b7511f9659307cb4276950967709336101a4565b505050506104de565b60408051600481526024810182526020810180516001600160e01b031663313ce56760e01b17905290515f918291829182916001600160a01b03871691610114916104b1565b5f60405180830381855afa9150503d805f811461014c576040519150601f19603f3d011682016040523d82523d5f602084013e610151565b606091505b509150915081801561016557506020815110155b15610198575f8180602001905181019061017f91906104c7565b905060ff8111610196576001969095509350505050565b505b505f9485945092505050565b5f8281526007602090815260408083206001600160a01b038516845290915281205460ff16610248575f8381526007602090815260408083206001600160a01b03861684529091529020805460ff191660011790556102003390565b6001600160a01b0316826001600160a01b0316847f2f8788117e7eff1d82e926ec794901d17c78024a50270940304540a733656f0d60405160405180910390a450600161024b565b505f5b92915050565b634e487b7160e01b5f52604160045260245ffd5b5f82601f830112610274575f5ffd5b81516001600160401b0381111561028d5761028d610251565b604051601f8201601f19908116603f011681016001600160401b03811182821017156102bb576102bb610251565b6040528181528382016020018510156102d2575f5ffd5b8160208501602083015e5f918101602001919091529392505050565b5f5f5f60608486031215610300575f5ffd5b83516001600160401b03811115610315575f5ffd5b61032186828701610265565b602086015190945090506001600160401b0381111561033e575f5ffd5b61034a86828701610265565b604086015190935090506001600160a01b0381168114610368575f5ffd5b809150509250925092565b600181811c9082168061038757607f821691505b6020821081036103a557634e487b7160e01b5f52602260045260245ffd5b50919050565b601f8211156103f257805f5260205f20601f840160051c810160208510156103d05750805b601f840160051c820191505b818110156103ef575f81556001016103dc565b50505b505050565b81516001600160401b0381111561041057610410610251565b6104248161041e8454610373565b846103ab565b6020601f821160018114610456575f831561043f5750848201515b5f19600385901b1c1916600184901b1784556103ef565b5f84815260208120601f198516915b828110156104855787850151825560209485019460019092019101610465565b50848210156104a257868401515f19600387901b60f8161c191681555b50505050600190811b01905550565b5f82518060208501845e5f920191825250919050565b5f602082840312156104d7575f5ffd5b5051919050565b60805160a05160c051611d4f6105325f395f8181610574015281816106ca01528181610a2601528181610b3401528181610d200152610e1701525f61095901525f818161042701526114380152611d4f5ff3fe608060405234801561000f575f5ffd5b50600436106102b1575f3560e01c806370a082311161017b578063b5bfddea116100e4578063d547741f1161009e578063dd62ed3e11610079578063dd62ed3e14610671578063e1e158a5146106a9578063ef8b30f714610610578063f8b2cb4f14610652575f5ffd5b8063d547741f1461063f578063d905777e14610652578063dd5967c314610665575f5ffd5b8063b5bfddea146105d6578063ba087652146105fd578063c63d75b614610453578063c6e6f59214610610578063cc00967914610623578063ce96cb771461062c575f5ffd5b806395d89b411161013557806395d89b41146105675780639e19789d1461056f578063a217fddf14610596578063a9059cbb1461059d578063b3d7f6b9146105b0578063b460af94146105c3575f5ffd5b806370a08231146104eb5780637a9c007c146105135780638456cb5914610526578063866dead31461052e57806391d148541461054157806394bf804d14610554575f5ffd5b80632f2ff15d1161021d5780634cdad506116101d75780634cdad506146103085780635c975abb146104675780636433203a1461047257806364c3397714610491578063665714a9146104b95780636e553f65146104d8575f5ffd5b80632f2ff15d146103e5578063313ce567146103f857806336568abe1461041257806338d52e0f146104255780633f4ba83a1461044b578063402d267d14610453575f5ffd5b80630ac2d1811161026e5780630ac2d1811461034157806318160ddd1461036c578063182a29301461037457806322459e181461038957806323b872dd146103b0578063248a9ca3146103c3575f5ffd5b806301e1d114146102b557806301ffc9a7146102d057806306fdde03146102f357806307a2d13a14610308578063095ea7b31461031b5780630a28a4771461032e575b5f5ffd5b6102bd6106b3565b6040519081526020015b60405180910390f35b6102e36102de366004611930565b610740565b60405190151581526020016102c7565b6102fb610776565b6040516102c79190611957565b6102bd61031636600461198c565b610806565b6102e36103293660046119be565b610811565b6102bd61033c36600461198c565b610828565b600854610354906001600160a01b031681565b6040516001600160a01b0390911681526020016102c7565b6002546102bd565b6103876103823660046119e6565b610834565b005b6102bd7fcab5a0bfe0b79d2c4b1c2e02599fa044d115b7511f9659307cb427695096770981565b6102e36103be366004611a16565b610903565b6102bd6103d136600461198c565b5f9081526007602052604090206001015490565b6103876103f3366004611a50565b610928565b610400610952565b60405160ff90911681526020016102c7565b610387610420366004611a50565b61097d565b7f0000000000000000000000000000000000000000000000000000000000000000610354565b6103876109b5565b6102bd610461366004611a7a565b505f1990565b60065460ff166102e3565b6102bd610480366004611a7a565b600a6020525f908152604090205481565b6102bd61049f366004611a7a565b6001600160a01b03165f908152600a602052604090205490565b6102bd6104c7366004611a7a565b600b6020525f908152604090205481565b6102bd6104e6366004611a50565b6109ca565b6102bd6104f9366004611a7a565b6001600160a01b03165f9081526020819052604090205490565b6103876105213660046119be565b610abd565b610387610be7565b61038761053c366004611a7a565b610bf9565b6102e361054f366004611a50565b610c26565b6102bd610562366004611a50565b610c50565b6102fb610c81565b6103547f000000000000000000000000000000000000000000000000000000000000000081565b6102bd5f81565b6102e36105ab3660046119be565b610c90565b6102bd6105be36600461198c565b610c9d565b6102bd6105d1366004611a93565b610ca9565b6102bd7f52ba824bfabc2bcfcdf7f0edbb486ebb05e1836c90e78047efeb949990f72e5f81565b6102bd61060b366004611a93565b610da0565b6102bd61061e36600461198c565b610e89565b6102bd60095481565b6102bd61063a366004611a7a565b610e94565b61038761064d366004611a50565b610eb6565b6102bd610660366004611a7a565b610eda565b6102bd64e8d4a5100081565b6102bd61067f366004611acc565b6001600160a01b039182165f90815260016020908152604080832093909416825291909152205490565b6102bd620f424081565b6040516370a0823160e01b81523060048201525f907f00000000000000000000000000000000000000000000000000000000000000006001600160a01b0316906370a0823190602401602060405180830381865afa158015610717573d5f5f3e3d5ffd5b505050506040513d601f19601f8201168201806040525081019061073b9190611af4565b905090565b5f6001600160e01b03198216637965db0b60e01b148061077057506301ffc9a760e01b6001600160e01b03198316145b92915050565b60606003805461078590611b0b565b80601f01602080910402602001604051908101604052809291908181526020018280546107b190611b0b565b80156107fc5780601f106107d3576101008083540402835291602001916107fc565b820191905f5260205f20905b8154815290600101906020018083116107df57829003601f168201915b5050505050905090565b5f610770825f610ef7565b5f3361081e818585610f2f565b5060019392505050565b5f610770826001610f3c565b7fcab5a0bfe0b79d2c4b1c2e02599fa044d115b7511f9659307cb427695096770961085e81610f6b565b61086784610f75565b82156108b2576001600160a01b0384165f908152600a602052604081208054859290610894908490611b57565b925050819055508260095f8282546108ac9190611b57565b90915550505b6040805184815260208101849052428183015290516001600160a01b038616917f7e2f47fc1890fbb3582a024136b81b3806d1bea781c72b8201f6870d35703383919081900360600190a250505050565b5f336109108582856110e6565b61091b85858561115c565b60019150505b9392505050565b5f8281526007602052604090206001015461094281610f6b565b61094c83836111b9565b50505050565b5f61073b817f0000000000000000000000000000000000000000000000000000000000000000611b6a565b6001600160a01b03811633146109a65760405163334bd91960e11b815260040160405180910390fd5b6109b0828261124a565b505050565b5f6109bf81610f6b565b6109c76112b5565b50565b5f6109d3611307565b6109db611331565b620f42408310806109f0575064e8d4a5100083115b15610a0e5760405163162908e360e11b815260040160405180910390fd5b610a1783610e89565b9050610a4e6001600160a01b037f000000000000000000000000000000000000000000000000000000000000000016333086611357565b610a5882826113be565b6001600160a01b0382165f818152600b6020908152604091829020429081905582518781529182018590528183015290517f62ecb2a394867776d4797065f4c2c678a4d98de37e96d0a89642599b6e0c4f549181900360600190a26107706001600555565b7fcab5a0bfe0b79d2c4b1c2e02599fa044d115b7511f9659307cb4276950967709610ae781610f6b565b6001600160a01b038316610b0e57604051635b43e1a760e01b815260040160405180910390fd5b60405163095ea7b360e01b81526001600160a01b038481166004830152602482018490527f0000000000000000000000000000000000000000000000000000000000000000169063095ea7b3906044016020604051808303815f875af1158015610b7a573d5f5f3e3d5ffd5b505050506040513d601f19601f82011682018060405250810190610b9e9190611b83565b50604080518381524260208201526001600160a01b038516917fbb2a46eba51a59a6015a6cda32b2adfc949ee129a8d0c4196a47eb96cd4204a8910160405180910390a2505050565b5f610bf181610f6b565b6109c76113f6565b5f610c0381610f6b565b50600880546001600160a01b0319166001600160a01b0392909216919091179055565b5f9182526007602090815260408084206001600160a01b0393909316845291905290205460ff1690565b5f5f19610c61565b60405180910390fd5b5f610c6b85610c9d565b9050610c7933858388611433565b949350505050565b60606004805461078590611b0b565b5f3361081e81858561115c565b5f610770826001610ef7565b5f610cb2611307565b610cba611331565b610cc384610828565b9050805f03610ce55760405163162908e360e11b815260040160405180910390fd5b336001600160a01b03831614610d0057610d008233836110e6565b610d0982610f75565b610d1382826114c5565b610d476001600160a01b037f00000000000000000000000000000000000000000000000000000000000000001684866114f9565b604080518281526020810186905242918101919091526001600160a01b038316907f72bd9af305776d5a57201bdd99d0c17d95d19545592cf3f699fa1ec0faf2c975906060015b60405180910390a26109216001600555565b5f610da9611307565b610db1611331565b610dba82610f75565b610dc384610806565b9050805f03610de55760405163162908e360e11b815260040160405180910390fd5b336001600160a01b03831614610e0057610e008233866110e6565b610e0a82856114c5565b610e3e6001600160a01b037f00000000000000000000000000000000000000000000000000000000000000001684836114f9565b604080518581526020810183905242918101919091526001600160a01b038316907f72bd9af305776d5a57201bdd99d0c17d95d19545592cf3f699fa1ec0faf2c97590606001610d8e565b5f610770825f610f3c565b6001600160a01b0381165f90815260208190526040812054610770905f610ef7565b5f82815260076020526040902060010154610ed081610f6b565b61094c838361124a565b6001600160a01b0381165f90815260208190526040812054610770565b5f610921610f036106b3565b610f0e906001611b57565b610f195f600a611c85565b600254610f269190611b57565b8591908561152a565b6109b08383836001611575565b5f610921610f4b82600a611c85565b600254610f589190611b57565b610f606106b3565b610f26906001611b57565b6109c78133611639565b6001600160a01b0381165f908152600b60205260408120549003610f965750565b6001600160a01b0381165f908152600b6020526040812054610fb89042611c93565b90505f610fd9836001600160a01b03165f9081526020819052604090205490565b9050801580610fe6575081155b15610ff057505050565b66b1a2bc2ec500005f6a1a1601fc4ea7109e000000846110108486611ca6565b61101a9190611ca6565b6110249190611cd1565b905080156110c7576001600160a01b0385165f908152600a602052604081208054839290611053908490611b57565b925050819055508060095f82825461106b9190611b57565b90915550506001600160a01b0385165f818152600a602090815260409182902054825185815291820152428183015290517f02e0d287946405857554775bd002c9ab931dfa8402375826ff0a52d6f6124f6f9181900360600190a25b505050506001600160a01b03165f908152600b60205260409020429055565b6001600160a01b038381165f908152600160209081526040808320938616835292905220545f1981101561094c578181101561114e57604051637dc7a0d960e11b81526001600160a01b03841660048201526024810182905260448101839052606401610c58565b61094c84848484035f611575565b6001600160a01b03831661118557604051634b637e8f60e11b81525f6004820152602401610c58565b6001600160a01b0382166111ae5760405163ec442f0560e01b81525f6004820152602401610c58565b6109b0838383611672565b5f6111c48383610c26565b611243575f8381526007602090815260408083206001600160a01b03861684529091529020805460ff191660011790556111fb3390565b6001600160a01b0316826001600160a01b0316847f2f8788117e7eff1d82e926ec794901d17c78024a50270940304540a733656f0d60405160405180910390a4506001610770565b505f610770565b5f6112558383610c26565b15611243575f8381526007602090815260408083206001600160a01b0386168085529252808320805460ff1916905551339286917ff6391f5c32d9c69d2a47ea670b442974b53935d1edc7fd64eb21e047a839171b9190a4506001610770565b6112bd611798565b6006805460ff191690557f5db9ee0a495bf2e6ff9c91a7834c1ba4fdd244a5e8aa4e537bd38aeae4b073aa335b6040516001600160a01b03909116815260200160405180910390a1565b60026005540361132a57604051633ee5aeb560e01b815260040160405180910390fd5b6002600555565b60065460ff16156113555760405163d93c066560e01b815260040160405180910390fd5b565b6040516001600160a01b03848116602483015283811660448301526064820183905261094c9186918216906323b872dd906084015b604051602081830303815290604052915060e01b6020820180516001600160e01b0383818316178352505050506117bb565b6001600160a01b0382166113e75760405163ec442f0560e01b81525f6004820152602401610c58565b6113f25f8383611672565b5050565b6113fe611331565b6006805460ff191660011790557f62e78cea01bee320cd4e420270b5ea74000d11b0c9f74754ebdbfc544b05a2586112ea3390565b61145f7f0000000000000000000000000000000000000000000000000000000000000000853085611357565b61146983826113be565b826001600160a01b0316846001600160a01b03167fdcbc1c05240f31ff3ad067ef1ee35ce4997762752e3a095284754544f4c709d784846040516114b7929190918252602082015260400190565b60405180910390a350505050565b6001600160a01b0382166114ee57604051634b637e8f60e11b81525f6004820152602401610c58565b6113f2825f83611672565b6040516001600160a01b038381166024830152604482018390526109b091859182169063a9059cbb9060640161138c565b5f61155761153783611827565b801561155257505f848061154d5761154d611cbd565b868809115b151590565b611562868686611853565b61156c9190611b57565b95945050505050565b6001600160a01b03841661159e5760405163e602df0560e01b81525f6004820152602401610c58565b6001600160a01b0383166115c757604051634a1406b160e11b81525f6004820152602401610c58565b6001600160a01b038085165f908152600160209081526040808320938716835292905220829055801561094c57826001600160a01b0316846001600160a01b03167f8c5be1e5ebec7d5bd14f71427d1e84f3dd0314c0f7b2291e5b200ac8c7c3b925846040516114b791815260200190565b6116438282610c26565b6113f25760405163e2517d3f60e01b81526001600160a01b038216600482015260248101839052604401610c58565b6001600160a01b03831661169c578060025f8282546116919190611b57565b9091555061170c9050565b6001600160a01b0383165f90815260208190526040902054818110156116ee5760405163391434e360e21b81526001600160a01b03851660048201526024810182905260448101839052606401610c58565b6001600160a01b0384165f9081526020819052604090209082900390555b6001600160a01b03821661172857600280548290039055611746565b6001600160a01b0382165f9081526020819052604090208054820190555b816001600160a01b0316836001600160a01b03167fddf252ad1be2c89b69c2b068fc378daa952ba7f163c4a11628f55a4df523b3ef8360405161178b91815260200190565b60405180910390a3505050565b60065460ff1661135557604051638dfc202b60e01b815260040160405180910390fd5b5f5f60205f8451602086015f885af1806117da576040513d5f823e3d81fd5b50505f513d915081156117f15780600114156117fe565b6001600160a01b0384163b155b1561094c57604051635274afe760e01b81526001600160a01b0385166004820152602401610c58565b5f600282600381111561183c5761183c611ce4565b6118469190611cf8565b60ff166001149050919050565b5f5f5f6118608686611903565b91509150815f036118845783818161187a5761187a611cbd565b0492505050610921565b81841161189b5761189b600385150260111861191f565b5f848688095f868103871696879004966002600389028118808a02820302808a02820302808a02820302808a02820302808a02820302808a02909103029181900381900460010185841190960395909502919093039390930492909217029150509392505050565b5f805f1983850993909202808410938190039390930393915050565b634e487b715f52806020526024601cfd5b5f60208284031215611940575f5ffd5b81356001600160e01b031981168114610921575f5ffd5b602081525f82518060208401528060208501604085015e5f604082850101526040601f19601f83011684010191505092915050565b5f6020828403121561199c575f5ffd5b5035919050565b80356001600160a01b03811681146119b9575f5ffd5b919050565b5f5f604083850312156119cf575f5ffd5b6119d8836119a3565b946020939093013593505050565b5f5f5f606084860312156119f8575f5ffd5b611a01846119a3565b95602085013595506040909401359392505050565b5f5f5f60608486031215611a28575f5ffd5b611a31846119a3565b9250611a3f602085016119a3565b929592945050506040919091013590565b5f5f60408385031215611a61575f5ffd5b82359150611a71602084016119a3565b90509250929050565b5f60208284031215611a8a575f5ffd5b610921826119a3565b5f5f5f60608486031215611aa5575f5ffd5b83359250611ab5602085016119a3565b9150611ac3604085016119a3565b90509250925092565b5f5f60408385031215611add575f5ffd5b611ae6836119a3565b9150611a71602084016119a3565b5f60208284031215611b04575f5ffd5b5051919050565b600181811c90821680611b1f57607f821691505b602082108103611b3d57634e487b7160e01b5f52602260045260245ffd5b50919050565b634e487b7160e01b5f52601160045260245ffd5b8082018082111561077057610770611b43565b60ff818116838216019081111561077057610770611b43565b5f60208284031215611b93575f5ffd5b81518015158114610921575f5ffd5b6001815b6001841115611bdd57808504811115611bc157611bc1611b43565b6001841615611bcf57908102905b60019390931c928002611ba6565b935093915050565b5f82611bf357506001610770565b81611bff57505f610770565b8160018114611c155760028114611c1f57611c3b565b6001915050610770565b60ff841115611c3057611c30611b43565b50506001821b610770565b5060208310610133831016604e8410600b8410161715611c5e575081810a610770565b611c6a5f198484611ba2565b805f1904821115611c7d57611c7d611b43565b029392505050565b5f61092160ff841683611be5565b8181038181111561077057610770611b43565b808202811582820484141761077057610770611b43565b634e487b7160e01b5f52601260045260245ffd5b5f82611cdf57611cdf611cbd565b500490565b634e487b7160e01b5f52602160045260245ffd5b5f60ff831680611d0a57611d0a611cbd565b8060ff8416069150509291505056fea264697066735822122072b8c60f7f8b0fd8ee84a362b3a9b4939bc7275c6a3f0c1a3ac8184a563b4fa464736f6c634300081c0033",
  "linkReferences": {},
  "deployedLinkReferences": {},
  "immutableReferences": {
    "1392": [
      {
        "length": 32,
        "start": 1063
      },
      {
        "length": 32,
        "start": 5176
      }
    ],
    "1394": [
      {
        "length": 32,
        "start": 2393
      }
    ],
    "6272": [
      {
        "length": 32,
        "start": 1396
      },
      {
        "length": 32,
        "start": 1738
      },
      {
        "length": 32,
        "start": 2598
      },
      {
        "length": 32,
        "start": 2868
      },
      {
        "length": 32,
        "start": 3360
      },
      {
        "length": 32,
        "start": 3607
      }
    ]
  },
  "inputSourceName": "project/contracts/YieldVault.sol",
  "buildInfoId": "solc-0_8_28-bb1267cd40e78f954fb26f910aa70730bc1d06b3"
}